:020000041000EA
:1000000000B5324B212058609868022188439860DF
:10001000D860186158612E4B002199600221596106
:100020000121F02299502B49196001219960352056
:1000300000F044F80222904214D00621196600F024
:1000400034F8196E01211966002018661A6600F04E
:100050002CF8196E196E196E052000F02FF8012189
:100060000842F9D1002199601B49196000215960AB
:100070001A491B48016001219960EB211966A021F2
:10008000196600F012F800219960164914480160C1
:100090000121996001BC002800D000471248134993
:1000A000086003C880F30888084703B5996A0420EC
:1000B0000142FBD001200142F8D103BD02B5186610
:1000C0001866FFF7F2FF186E186E02BD00000240BE
:1000D000000000180000070000035F00212200005C
:1000E000F4000018222000A00001001008ED00E03C
:1000F00000000000000000000000000074B24E7A12
:1001000000200420F7010010C3010010C5010010F9
:10011000C1010010C1010010C1010010C101001097
:10012000C1010010C1010010C1010010C701001081
:10013000C1010010C1010010C9010010CB01001065
:10014000CD010010CD010010CD010010CD01001037
:10015000CD010010CD010010CD010010CD01001027
:10016000CD010010CD010010CD010010CD01001017
:10017000CD010010CD010010CD010010CD01001007
:10018000CD010010CD010010CD010010CD010010F7
:10019000CD010010CD010010CD010010CD010010E7
:1001A000CD010010CD010010CD010010CD010010D7
:1001B000CD010010CD010010CD010010CD010010C7
:1001C00000BE00BE00BE00BE00BE00BE00F04BF888
:1001D000103800BEF2EB8871002000101C200010C7
:1001E0003402001090A31AE700202149086006C8D5
:1001F00081F3088810471F48006800282FD10DA4FC
:100200000ECC002902D000F012F8F9E71A491B4A77
:10021000002000E001C19142FCD1194988471949E9
:1002200088471949884700BEFDE701C901C29A42C3
:10023000FBD370471C200010C00000206C29002058
:10024000C84800100000042000000420C848001026
:1002500000100420001004200000000070470B482C
:1002600001F018FB0047EFF30580C0B270470000B3
:1002700008ED00E0000000D070290020382D00209B
:10028000711000101103001061110010575600008A
:1002900006005250ABB36053B41F0010060052501A
:1002A000861C0302C41F0010060052505422A29D57
:1002B000CC1F001005005250DE65F468C8480010DD
:1002C000F8B5C04606480749091A8B10C90FC91866
:1002D00010B5491003D0044B002B00D0984710BD37
:1002E0006C2900206C29002000000000054B10B58F
:1002F000002B03D00449054800E000BFFFF7E2FFF0
:1003000010BDC04600000000F42C0020581F001053
:10031000F8B5CE464746042180B5002000F034F8F9
:10032000124B80279946124B002498460126114D06
:10033000BF004A4631002F61A300D3582A68914379
:100340000D4A11600D4A126853401B040C4A1B0CE5
:1003500013604346186D01F0ABFB00F01FFB094B27
:100360009C4201D00134E4E70024E2E7B8200020F9
:100370007801002000000540001005400C000540F9
:100380000C100540FF010000094A10B594464024B6
:10039000830063441A68C0006240803414408022A5
:1003A000520113431C60034B9C466044416010BDE6
:1003B00004C001400040014070B5EFF3108C72B6EC
:1003C0000D4D2B68002BFCD0BFF35F8F0724CB08AB
:1003D000C618C05C01230C40A3401C00044003422B
:1003E00007D118433070BFF35F8F2C608CF31088F7
:1003F00070BD100000F0B6FE2C0100D0024B186852
:100400008007C00F7047C04600C006400021044B63
:10041000044ABFF35F8F02C39342FAD17047C046CC
:10042000000100D0800100D0044A1078431CDBB2E8
:10043000172B00D9102313707047C046B82800202E
:1004400083680B4810B58446614462441201090177
:1004500059189B185C684A680120944201D802D060
:100460000020C0B210BD1A680B689A42F9D8F7E7AD
:10047000FFFFFF0F0A4B1968EFF3108072B60A688E
:10048000002AFCD0BFF35F8F1B68BFF35F8F002291
:100490001A6080F3108840BF002000217047C046DA
:1004A000202D0020F8B5574645464E46DE46E0B5BD
:1004B00099460CAB1C780DAB1B78070090469A460A
:1004C0000568002C44D1AC7B002C3BD06600296829
:1004D0003619033E89194B78AB73002B00D1EB73AF
:1004E00000238B704B700B702E4BE218BB6812010F
:1004F0009B1842461A604A465A600A9A9A600B9ABA
:10050000DA6000238B704B700B706B7B9B46002B6B
:1005100032D022005946A8686B68984700281DD041
:100520005B46584629685B005B448E19033BB070FC
:10053000CA18CB5C002B00D073705B4614706B73D1
:100540005C451AD0F0BCBB46B246A946A046F8BDF1
:10055000660029683619033E8919C5E75B465B00CA
:100560002A685B44033BD3189C709119925D002A62
:1005700000D05A705B460B706C7342464B46387D18
:1005800000F0ECFA051E02D05346002B04D00E9B5F
:10059000002BD7D01D70D5E72100386800F02AFD68
:1005A000F5E7C046FFFFFF0FF0B5DE464E46574663
:1005B00045460023E0B58DB00A936B4B8200D358BB
:1005C0000B90994600239B464B46079300F066FA32
:1005D000079C06000F006268EFF3108572B613687F
:1005E000002BFCD022000794BFF35F8F2468637B4D
:1005F0009946002B66D092685C4B90464B441B0199
:10060000984443461A685B6810001900801BB94182
:1006100000295EDD0B9800F0A1FA00230026984621
:1006200000279A46079C6368BFF35F8F5A461A609B
:1006300085F310885346002B08D10028C6D10DB091
:10064000F0BCBB46B246A946A046F0BD0A9B414657
:1006500018024B461843D047089009916268EFF39F
:10066000108572B61368002BFCD00794BFF35F8F20
:100670000899099A002A47DB114303D0079B1B699D
:10068000002B5CD1079B1B68D97B002906D01A6818
:100690004800411852184946033A51704A46DA73E5
:1006A0004B46079A013BD168CA5C0132CA545B468B
:1006B000079A13615368BFF35F8F5A461A6085F338
:1006C000108883E700230026984600279A460020DA
:1006D000A8E7002901D100289CD10021200000F0CA
:1006E0000BFC43461E685F689B68079A9A46434620
:1006F000DB689846D3684B44013B1B780A931B0286
:100700000343136100208DE72369002BBAD0330027
:100710003C005B1A94411A002300A74219D89F425B
:100720001BD059460491012103914946029141464B
:100730000191514607980091FFF7B4FEB7E700F02A
:10074000ADF9089A099B06000F0092197B41994266
:10075000E5D901225242D317E3E79642E1D90122BB
:100760005242D317DDE7C0460C2D0020FFFFFF0FDC
:10077000F8B557464E464546DE46E0B5404D814603
:100780008A466A68EFF3108872B61368002BFCD0B3
:10079000BFF35F8F2E68B47B002C38D067003368BE
:1007A0003F19033FDB195A78B273002A00D1F27364
:1007B000344AA118AA6809015218494611605146E5
:1007C0005160314991600021D16099705970197060
:1007D000737B9B46002B36D022005946B068736865
:1007E0009847002821D05B46584631685B005B443F
:1007F000CF19033BB870CA18CB5C002B00D07B70BC
:100800005B46147073735C451ED0002627E06B684E
:10081000BFF35F8F1C6088F3108801204042F0BC5A
:10082000BB46B246A946A046F8BD5B465B003268AF
:100830005B44033BD3189C70D119D25D002A00D0D1
:100840005A705B460B7074734A465346287D00F01D
:1008500085F9061ED9D02100286800F0CBFBEB6893
:100860001B19013B19786B68BFF35F8F00221A6078
:1008700088F310880020002ED1D108022043CEE753
:10088000BC280020FFFFFF0F7504001010B5124CAC
:100890006368002B04D00A21104800F0EDF910BD68
:1008A00023000F4A1021206800F03EFA032000F0D8
:1008B000E9F8032000F0C2F903200A4900F008F922
:1008C000FFF7B2FD084B9C46032360442375074B9A
:1008D00080006060DC60DEE7BC280020202D002066
:1008E00041040010A9050010400000340C2D002028
:1008F000F0B504000D0006267642F717C6463619F5
:100900006F4100B58F4213D810D000F0C7F8320005
:100910003B00121A8B41002B14DC002B37D029002E
:10092000200000F0C5F880BCB846F0BD8642ECD986
:100930000026002700F0B2F832003B00121A8B416B
:10094000002BEADD30003900FFF712FF0028E6DB5C
:1009500000239846BC460F4A0F4F7B6A9C4504D83B
:10096000B96A8E42DBD99C45D9D11168EFF310806A
:1009700072B60B68002BFCD0BFF35F8F1368BFF318
:100980005F8F4146196080F3108820BFE5E7002A99
:10099000C5D0D7E7202D00200040054070B50400E9
:1009A0000D0000F07BF802000B00200029008018E9
:1009B00059418B4205D802D0FFF79AFF70BD8242A1
:1009C000FAD901204042C117F6E7C046F0B5D64635
:1009D0004F464646C0B5EFF305823F23134018004B
:1009E0001038EFF3108C72B620490A68002AFCD048
:1009F000BFF35F8F0122170087401D4C1600A246EF
:100A000067631C4C2578A0462C00C4402640224237
:100A100009D1BFF35F8F0E608CF31088E0BCBA463B
:100A2000B146A846F0BD5246566A134A8400A25801
:100A300096420ED34246114BBD43E3581570BFF3A7
:100A40005F8F00220A608CF31088002BE6D0984755
:100A5000E4E70B4A9B00904643441A681A60BFF3D0
:100A60005F8F00230B608CF31088D7E7280100D03C
:100A700000400540362D0020242D0020702C002041
:100A8000D03F054010B5034B01001800024AFFF7A4
:100A900093FC10BD342D0020581F0010034B596AE1
:100AA0000A00986A596A8A42FAD1704700400540A4
:100AB000064A536A9942FCD807D1044B02E05A6AAD
:100AC000914202D19A6A8242F9D3704700400540B0
:100AD00070B504000D00EFF3108672B61A4A136861
:100AE000002BFCD0BFF35F8F002D1BD0200000F047
:100AF000C1FC164981420AD0200000F0C3FC01214C
:100B0000200000F0A5FC0123A340114A1360114B03
:100B1000A400E550BFF35F8F00220B4B1A6086F3F1
:100B2000108870BD0121A1400A4BA200D5500A4B8C
:100B300020001A788A4305491A7000F0CDFC002184
:100B4000200000F085FCE5E7280100D0CD09001069
:100B500038600540702C0020362D0020F0B54F463F
:100B6000D6464646C0B507002F4C616A0D00A66AFE
:100B7000616AA942FAD18B4208D805D00120E0BCB5
:100B8000BA46B146A846F0BDB242F7D9EFF3108A93
:100B900072B6264801680029FCD0BFF35F8F01259B
:100BA000BD402349204C8846097889462943C9B26B
:100BB0008C46414660460870391D890065630A51BC
:100BC0001C49B8004350216A0020294219D0616AAB
:100BD0000800A66A616A8142FAD18B4219D801D114
:100BE000B24216D8CC451DD00F4B1F221D625D634B
:100BF00001233A409340104A0120136043464A467D
:100C00001A70BFF35F8F0022084B1A608AF31088B6
:100C1000B5E70020BFF35F8F0022044B1A608AF310
:100C20001088ACE70120ECE700400540280100D027
:100C3000362D0020242D002080E200E0EFF3108C00
:100C400072B60A490B68002BFCD0BFF35F8F0123FB
:100C50008340074A0748136202789A430270BFF341
:100C60005F8F00230B608CF310887047280100D041
:100C700000400540362D0020024B9C46614489000F
:100C8000016070474000003410B50400FFF7CCFB52
:100C900001002000FFF7F0FFFF232371BFF35F8FF8
:100CA00010BDC04610B50400FFF7BEFB01002000D8
:100CB000FFF7E2FFFF23A380BFF35F8F10BDC046A5
:100CC00070B5050014001600002915D00C00002A8C
:100CD00012D080686B689847296800280ED073008E
:100CE0009B196200033B1219CB18033A9C708818B9
:100CF0008A5C002A15D10670200070BD63001B19A4
:100D00007200033B9219CB18033A9E7088188A5CD4
:100D1000002A02D104703400EEE75A7004703400E7
:100D2000EAE75A700670E7E730B583600023CCB27B
:100D300043730133047342608373C4730D0000680E
:100D4000012C06D9421C0133DBB2137003329C42E2
:100D5000F9D1FF2129404B005B18C018002303384C
:100D6000437030BDF8B505000C1E07D06300016864
:100D70001B19033BCB185A78002A01D12000F8BD7B
:100D8000500080180338091800204F78487021005F
:100D900058702800FFF794FF390006002800FFF77D
:100DA000E1FF0400002EE9D0002826D03100220007
:100DB000A8686B689847296800280FD063001B1942
:100DC0007200033B9219CB18033A9E7088188A5C14
:100DD000002A00D05A7004703400CFE773009B19CA
:100DE0006200033B1219CB18033A9C7088188A5C86
:100DF000002A00D05A700670C0E73400BEE7C04633
:100E0000F0B557464546DE464E46E0B50D006B0050
:100E100001685B19DF1E0400C85D83B00192CA1926
:100E200000284CD043001B18033BCB185E78B44617
:100E3000002E16D1019E002E3ED0E67B002E04D05F
:100E400073009B19CB18033B5D70E57300282FD10D
:100E50000023537003B0F0BCBB46B246A946A0467F
:100E6000F0BD72006244033A8A1851788846002126
:100E7000517089465970320001002000FFF720FFB1
:100E800043468246002B07D05B0021684344033B66
:100E9000CB185A78002A16D1424651462000FFF757
:100EA0000FFF2168019BCA19002BC6D10028CFD0A3
:100EB00043001B18033BCB1800219970C8E7019B26
:100EC000002BBAD1C4E750008018033809184878BD
:100ED000834648464870587041462000FFF7F0FEB0
:100EE000594680462000FFF73DFF414602002000A2
:100EF000FFF7E6FE8046CFE7F0B557464546DE46AB
:100F00004E46E0B583B00191457B04006B0000685C
:100F10005B19DF1EC15DC21900294ED04B005B1862
:100F2000033BC3185E78B446002E18D1019E002EF4
:100F300040D0E67B002E04D073009B19C318033BFE
:100F40005D70E573002931D100232800537061736F
:100F500003B0F0BCBB46B246A946A046F0BD720045
:100F60006244033A821850788046002050708146CF
:100F7000587032002000FFF7A3FE43468246002B44
:100F800007D05B0021684344033BCB185A78002A02
:100F900017D1424651462000FFF792FE019B010007
:100FA0002068C219002BC4D10029CDD04B005B189A
:100FB000033BC31800209870C6E7019B002BB8D1F3
:100FC000C2E750008018033809184878834648461D
:100FD0004870587041462000FFF772FE594680461F
:100FE0002000FFF7BFFE414602002000FFF768FE29
:100FF0008046CEE770B5040000292CD0437B8B429D
:101000002ED0056848004018033828188278002A36
:1010100021D053009B18033BEA5CEE188A4202D1B0
:101020001BE0002A08D053009B18033BEB185A78AA
:101030008A42F6D142785A700023012283704370AD
:101040002000FFF7DDFE617B02002000FFF738FE85
:101050006073012000E0002070BD43783370EBE73F
:1010600001221900FFF7CCFE60730120F4E7C046AF
:101070002C4B2D4A70B51A602C4A2D4B2D491A6005
:1010800014008B689C43FBD12B4D2C4EB54208D2EB
:10109000013E761BB60808CD984723000134B342C1
:1010A000F9D100F07DF8264A214B1A60214A936855
:1010B000DB43DB01DD09002BF9D14022214B224C1F
:1010C000224E9A675A671A67DA66B44208D22368D2
:1010D0002000002B20D00834FFF7E4FDB442F6D303
:1010E0001B4C1C4EC022B168200000F08FFDB46084
:1010F000FFF78CF900F024FBFFF7C8FB164C174EE6
:10110000B44208D2013E361BB60808CC98472B00E3
:1011100001359E42F9D170BD0834FFF7B5FDB442E8
:10112000D5D3DDE700E00040BFCDFBFEFE7F3C00F5
:1011300000F0004000C0004058290020682900202D
:10114000FFFFFF0100F00140502900205829002036
:101150000000002000ED00E0682900206C2900203C
:1011600000BEFDE70FB400B5084883B000F084FE70
:10117000049B002B07D005A91800019100F06AFB21
:10118000034800F079FE00BEFDE7C0467C1F00105A
:101190008C1F001010B50148FFF7E4FF901F0010EE
:1011A00010B50C2082B000F031FBFFF727F90028C2
:1011B0000ED0854B854A1A605A609A60DA601A61CF
:1011C0005A619A61DA611A62814A5A6202B010BDAC
:1011D000804CA06700F022FB01227F4B1A60636CF9
:1011E000012BFCD103227D4B1A607A4A936B012BB1
:1011F000FCD1022401217A4A7A480533009400F098
:10120000B1FA0523784A01217848009400F0AAFA3F
:10121000774B5A68FF2A02D8802252005A608022F7
:101220006E4B694C12011A602169002905D0606972
:1012300000F062FB01300138FDD1E0226C4B6D48BB
:1012400019680A40026002221968514001320A40BE
:10125000042102609A681142FCD08021664A09018B
:101260001160802252005A60644B2361644B5968BC
:10127000FF2900D85A6003220121574B1A60604AA7
:1012800093681942FCD0E023106803405D48036076
:10129000126803234A4002211340594A03609368AD
:1012A0001942FCD08021584B090119608021574B0D
:1012B000490051606361564B5A68FF2A00D8596053
:1012C0008022544B12011A60E169002905D060693F
:1012D00000F012FB01300138FDD1E0234C4A1168C7
:1012E0000B404D490B6080214C4B09011960802156
:1012F000364B49005160E361494B5A68FF2A00D8D8
:1013000059608022474B12011A60216A002905D0DA
:10131000606900F0F1FA01300138FDD1E023404A64
:1013200011680B4040490B608021404B0901196056
:1013300080235B0053608022244BD20223623C4B0B
:101340005968914200D25A6080223A4B12011A60C9
:10135000616A002905D0606900F0CEFA01300138D9
:10136000FDD1E023324A11680B4033490B608021E4
:10137000324B090119608023DB025360144B636216
:101380002F4B5A68FF2A02D8802252005A608022CE
:101390002C4B12011A60A169002905D0606900F088
:1013A000ABFA01300138FDD1E023254A11680B402A
:1013B00025490B608021254B0901196080235B00C2
:1013C0005360124BA36101E7802C0020006CDC020B
:1013D0001BB70000008000403CB0004030B000402F
:1013E000002F68590080024000389C1C00C0024059
:1013F000308000403090004030A00040001BB7001B
:101400003C8000403C9000403CA0004040597307A5
:101410005480004054B000405490004054A000401C
:101420006080004060B000406090004060A00040DC
:101430006C8000406CB000406C9000406CA000409C
:101440004880004048B000404890004048A000401C
:1014500001238340002904D0034A1360034A136028
:101460007047034A1360FBE780E200E000E100E020
:1014700080E100E0024B10309B688000C05870474C
:1014800000ED00E070B50D00EFF3108672B60F4A64
:101490001368002BFCD0BFF35F8F0D4B10309B689F
:1014A00084001B590B4A934203D09D4201D0FFF7A1
:1014B00071FE074B9B681D51BFF35F8FBFF35F8FBA
:1014C0000022024B1A6086F3108870BD240100D000
:1014D00000ED00E0CD010010F0B5DE4657464E4667
:1014E0004546E0B50C0083B0EFF3108A72B65A4A55
:1014F0001368002BFCD0BFF35F8F1022914681440C
:101500004A46564B96009B689D59554B98469D42BE
:1015100005D0A54216D0534FEB1B2F2B14D94F4BA0
:101520009B689D51BFF35F8FBFF35F8F00224A4BD3
:101530001A608AF3108803B0F0BCBB46B246A946D5
:10154000A046F0BD1D00EAE7012383409B465A46B2
:10155000454B1B681A4000925A46444B1A60BFF331
:101560005F8FFEF780FE0190002803D0814501D0F7
:10157000FFF710FE01232A009A4393689C4208D18A
:101580005FE04B005B189B00FB189968A14211D0EB
:101590001A00062151560029F3DA009B002B05D0D2
:1015A0005A46334B1A60304B1A60B8E75A462F4BF5
:1015B0001A60B4E706215956002921DB4A00501869
:1015C00080003C188046A0689860E079D8710620B9
:1015D00020569871002824DBA488F81A6405241585
:1015E00044440019E0240005400D24022043988063
:1015F000204B521818789200BA1890711970CCE7E5
:101600000199002910D1FF3191711B49918019492D
:101610000A789A71194ADB1B5B415A43120D0A7012
:10162000BBE7BD200002E2E7154A1649D21A083A84
:101630005002400D01439980134952080A43DA8051
:10164000ABE70621515613000029B7DA019A002AA8
:10165000EAD14546DBE7C046240100D000ED00E0BA
:10166000CD010010E428002000E100E080E100E06E
:1016700080E200E0352D002000BDFFFFAAAA000097
:101680001E29002000F0FFFF00F8FFFFF8B501253C
:1016900004000543FEF7E7FDEFF3108C72B6214A14
:1016A0001368002BFCD0BFF35F8F1F4E2100B7687B
:1016B0001E4A1F4B891A49414B431B0D59B28300E7
:1016C000F858A8421CD00623D3568B421CD01223B4
:1016D000D3568B4222D01E23D3568B4220D02A23AE
:1016E000D35603208B4210D0124B1A781970A27176
:1016F000BFF35F8F00220B4B1A608CF31088F8BD8C
:10170000B2680D48D050EFE7002043001B189B0043
:10171000D218FF239371094B9380E5E70120F4E78A
:101720000220F2E7240100D000ED00E0E4280020D0
:10173000AAAA0000352D0020CD01001000BDFFFF3A
:10174000054B064A1360064A136053609360D360EA
:1017500013615361936170478080808000E400E0F2
:1017600004E400E0F8B504000C2017001D000E0092
:1017700000F0C2F843011B1A9901C91AC9000918DF
:101780008901380000F0B8F8069B29041B031943AF
:101790002368002B20DB194B194DE3185A425341A3
:1017A0008022520194461B03164A63441360164A72
:1017B00013601F00AA689743FBD1C023221D9B0121
:1017C000134321222660A0601A602268002AFCDAF6
:1017D0000822E1601A60F8BD3F2322681340B3423B
:1017E000D9D1A3681B051B0D8342D4D1EE22E36837
:1017F000D20213408B42CED1EDE7C0460040FDBF80
:1018000000C0004000E0004000F000408023024A99
:101810009B000343D362704700800540AA23064A19
:101820001B0113602F230549D360054B19605368D2
:10183000002BFCDA7047C0460040024000B0FA00BE
:101840000060024010B5002800D110BD00F0C4FABD
:10185000FBE7C04610B5094A0300146884B0002CA9
:1018600008D0012200910648524203A9A047012056
:1018700004B010BD00F000FB0020F9E7F02C0020C0
:101880004518001001480421014B18473029002059
:10189000B5180010142310B50100188804331B88F4
:1018A000984710BD162310B50100188802331B8815
:1018B000984710BDF8B54746CE4680B50F1E19D0E3
:1018C00014239946043304000025012698464B460C
:1018D0001888434621681B88984701C4431E9841D5
:1018E000013540420640AF42F1D13000C0BCB9469C
:1018F000B046F8BD0126F8E7114A936F9B0813D252
:1019000010665166002905D0FFE7FFE7FFE7516F3A
:10191000106F704704B5002801D00020C04300F0CC
:1019200003FB002104BDC046F0B5146E556E576F21
:10193000166FFFF7E5FF1466556657671667F0BD2B
:10194000000000D0132370B51D78012D15D010DDD7
:101950001C48FFF7A7FF1C4C01008022200000F06C
:1019600055F9022D06D01948FFF794FF184B18605F
:1019700070BD154C174BA364F5E7164B124C236052
:101980006360A360E36023616361A361E361236239
:101990006362A362E36223636363A363E363236419
:1019A0006364A364E36423656365A365E3652366F9
:1019B0006366A366E36623676367A367E367A3645D
:1019C000D1E7C04653440000702A00204C33000089
:1019D0001C2D0020D919001007B5604601880A0A9D
:1019E0000230DF2AFAD1C9B2820804D302884088C3
:1019F0000004104300E00068014A5050039007BD06
:101A0000702A002000220B150AD410B5944600F06D
:101A100031F81414013400DA0021CB17144C20479C
:101A20000020002170476244343A0CD40C2A07DAB3
:101A300004009140904052422032D440214310BDD6
:101A4000D843D94310BD203207D40C4694405242AB
:101A500020321141D040204310BD0800C917203268
:101A600003D452422032104110BD1800190010BD9D
:101A7000271A00100A0DCC0F531E1B05C91A520558
:101A800003D3C943404200D30131520D03D0531C4C
:101A9000DB0A07D0121B00206400611C8907891231
:101AA000803A1203014BD21A70470000FF03000076
:101AB000034B5B6FFC46184774DF5F1B0010000090
:101AC000702B0020132310B512481C78FFF7EAFE94
:101AD0000100012C0AD003DD80220F4800F096F8A7
:101AE0000E48FFF7D7FE0E4B186010BD0A4C54226B
:101AF000200000F08BF80B4B6365A365E36523665C
:101B00006366A366E36623676367A367E36723628D
:101B1000E361E5E753460000702B00204C330000E2
:101B20001C2D0020291B001007B5604601880A0AF9
:101B30000230DF2AFAD1C9B2820804D30288408871
:101B40000004104300E00068014A5050039007BDB4
:101B5000702B0020002100B500F004F845E00021C2
:101B6000C31518D410B58C46C3174000020E0BD015
:101B7000FF2A0DD0511E7F3A0906401A5840C01A5C
:101B800001110007054C204700200100030010BD93
:101B9000D843D94310BD002000217047271A0010F8
:101BA0006244343A0CD40C2A07DA04009140904085
:101BB00052422032D440214310BDD843D94310BDF6
:101BC000203207D40C469440524220321141D0407A
:101BD000204310BD0800C917203203D452422032DE
:101BE000104110BD1800190010BDCA179A4200D14B
:101BF00000BDD8430121C907414000BD014804216F
:101C0000014B184740290020B5180010014B5B68B4
:101C10001847000040290020030010B508001100FB
:101C20001B68984710BDC046F0B546464F46D6469D
:101C3000C0B5437C80460E001700002B46D0002A1A
:101C40003FDD4B1E9946244B0125002400209A4677
:101C50000DE04B461B5D0D3B5A425341325DDBB2FA
:101C60000A2A0BD02B00013401359F421ADD002CCB
:101C7000EFD14346325D1B7C0A2AF3D1002BF1D110
:101C8000A04204DA4346211A1B683018984743469D
:101C900050461B6802219847013428002B0001356B
:101CA0009F42E4DC874204DD4346391A1B68301842
:101CB0009847F619013E33780D3B5A42534142464C
:101CC0001374E0BCBA46B146A846F0BD03681100E3
:101CD00030009847F5E7C046FC1F0010F0B55746A6
:101CE0004E464546DE461C00D023E0B51B061F6865
:101CF000344B83B006000D00180001A991469A46A6
:101D000000F01AF98046002808D1019B7FB29F425B
:101D100004D0504600F018F9012398466B1C03D1FB
:101D2000300000F0C7F80500002C27D1264F274BC4
:101D30001C68002C18D04B46002B21D1244B99460F
:101D400002E0E468002C0FD02368002BF9D04B464A
:101D50001B68002B01D0A342F3D120002A003100E0
:101D6000B847E468002CEFD14346002B25D103B0DF
:101D7000F0BCBB46B246A946A046F0BD154FD6E71B
:101D8000134B99460A239B4602E0E468002CEBD0F3
:101D90002368002BF9D04B461B68002B01D0A342CF
:101DA000F3D12A0031002000B8475A466B46200084
:101DB0001A7101A90122B847E7E7504600F0ACF8D4
:101DC000D5E7C04650290020291C0010E82C00202F
:101DD000EC2C0020191C0010F0B5CE46474680B50B
:101DE00083B06B46DE1CD02330701B061C681F4B73
:101DF000804601A91800994600F09EF8071E20D0E1
:101E00001B4B1C68002C28D01A4D02E0E468002C03
:101E10000FD02368002BF9D02B68002B01D0A342F0
:101E2000F4D1200001223100FFF7FEFEE468002C0F
:101E3000EFD1002F11D1404603B0C0BCB946B04627
:101E4000F0BD019B64B29C420BD0484600F07CF888
:101E5000074B01271C68002CD6D1484600F05CF8DF
:101E6000E9E7034B1C68002CCED1E4E750290020A1
:101E7000E82C0020EC2C002070B5040000F01AF8CB
:101E800000230100050001222000FFF727FF084B77
:101E90001C68002C06D06368002B05D09847E468C6
:101EA000002CF8D1280070BDE468002CF3D1F9E7CC
:101EB000E82C002010B583070AD00300032102E0BC
:101EC00001330B4205D01A78002AF9D1181A10BD37
:101ED000030019680C4A0D4C8A188A4322420FD11C
:101EE0005968094A04338A188A43224208D159683A
:101EF000054A04338A188A432242F1D000E00133B4
:101F00001A78002AFBD1E1E7FFFEFEFE8080808088
:101F1000F8B5C0460000000001B40248844601BC88
:101F2000604700BF4D01002001B40248844601BC57
:101F3000604700BF7501002001B40248844601BC1F
:101F4000604700BF0901002001B40248844601BC7B
:081F5000604700BFC100002042
:101F5800486172647761726520616C61726D2025D9
:101F68006420616C726561647920636C61696D6578
:101F7800640000000A2A2A2A2050414E4943202A98
:101F88002A2A0A000A0000004861726420617373FB
:101F98006572740052656C6561736500626F6F7479
:101FA800325F77323571303830000000312E332EF1
:101FB800310000007069636F0000000053696E47CC
:101FC800656E00004A756E2031382032303232009A
:101FD80006005250BBFF3CB6BC1F00100600525012
:101FE800E182887FA41F001006005250D3F075428A
:081FF8009C1F00100D0A0000FF
:10200000B4020010A80200109C020010D81F00109B
:0C20100090020010E41F0010F01F0010F0
:10201C00D02330B500251B0600245D5706E003686D
:10202C00BFF35F8F1C6081F3108820BF0268EFF351
:10203C00108172B61368002BFCD0BFF35F8F03794D
:10204C007F2BECD905710368BFF35F8F00221A60F8
:10205C0081F3108830BDC04603000068EFF3108C8C
:10206C0072B60268002AFCD0BFF35F8F04229A5626
:10207C00002A0BDB00290FD000200A601B68BFF37D
:10208C005F8F00221A608CF310887047D0221206E2
:10209C00126801201A71F1E70020EFE70268EFF3F4
:1020AC00108172B61368002BFCD0BFF35F8FFF2337
:1020BC0003710368BFF35F8F00221A6081F31088ED
:1020CC0040BF70477047C04600000000C2FAF94498
:1020DC00C2FA79442CA72644C2FAF943CEFBC74373
:1020EC002CA7A6436FD88E43C2FA79433B345E4388
:1020FC00CEFB4743A4CD35432CA7264364D51943C7
:10210C006FD80E438A520543C2FAF9425C46EB4241
:10211C003B34DE425282D242CEFBC742E975BE420C
:10212C00A4CDB54217E6AD422CA7A642A5FC9F4212
:10213C0064D59942D22294426FD88E4274EB894274
:10214C00895285428D058142C2FA79428667724274
:10215C005C466B427E8D64423A345E42D1325842C8
:10216C0052825242851C4D42CEFB4742211B4342B8
:10217C00E9753E4201083A42A4CD354262C3314270
:10218C0017E62D42E6322A422CA726427F402342F4
:10219C00A5FC1F4293D91C4264D5194258EE164235
:1021AC00D2221442507111426FD80E42E2560C42A8
:1021BC0074EB0942059507428A52054205230342F6
:1021CC008D0501428CF2FD41C2FAF9413922F641EA
:1021DC008667F24152C9EE415C46EB4175DDE74141
:1021EC007E8DE4416A55E1413A34DE41FE28DB4103
:1021FC00D132D841DC50D5415382D24172C6CF4145
:10220C00851CCD41DB83CA41CEFBC741C283C5418E
:10221C00211BC3415BC1C041E975BE414A38BC4179
:10222C000108BA419BE4B741A4CDB541B4C2B34156
:10223C0062C3B1414DCFAF4118E6AD416707AC4128
:10224C00E632AA414268A8412CA7A64158EFA44106
:10225C007E40A341599AA141A5FC9F4122679E4112
:10226C0093D99C41BC539B4164D59941545E984190
:10227C0058EE96413D859541D1229441E7C6924155
:10228C0050719141E12190416FD88E41D1948D4193
:10229C00E1568C41791E8B4174EB8941AEBD88416E
:1022AC000595874159718641895285417838844119
:1022BC0005238341161282418D058141A1FA7F418C
:1022CC008CF27D41A7F27B41C2FA7941AD0A78418B
:1022DC00392276413B41744186677241F0947041DA
:1022EC0052C96E4182046D415C466B41B98E6941A5
:1022FC0074DD67416D3266417E8D644188EE6241CA
:10230C006A55614105C25F413A345E41EDAB5C41B7
:10231C00FE285B4154AB5941D13258415CBF564108
:10232C00DC50554136E753415382524119225141F9
:10233C0072C64F41496F4E41851C4D4112CE4B41E7
:10234C00DB834A41CB3D4941CEFB4741D2BD46419F
:10235C00C38345418D4D4441211B43416BEC4141AD
:10236C005BC14041E0993F41E9753E4167553D41B4
:10237C004A383C41821E3B4101083A41B9F438418C
:10238C009AE4374198D73641A4CD3541B1C6344192
:10239C00B4C233419DC1324162C33141F6C73041B1
:1023AC004DCF2F415CD92E4118E62D4174F52C41AF
:1023BC0067072C41E61B2B41E6322A415E4C294132
:1023CC00416828418A8627412CA726411ECA2541EF
:1023DC0058EF2441D11624417F4023415A6C2241AD
:1023EC00599A214175CA2041A5FC1F41E2301F4179
:1023FC0022671E41609F1D4192D91C41B3151C419F
:10240C00BC531B41A3931A4164D51941F6181941C9
:10241C00545E184176A5174158EE1641F138164115
:10242C003D85154135D31441D22214410F7413410B
:10243C00E7C61241541B124150711141D6C81041CC
:10244C00E12110416A7C0F416FD80E41E8350E41F5
:10245C00D2940D4126F50C41E1560C41FFB90B41CC
:10246C00791E0B414C840A4173EB0941EB53094132
:10247C00ADBD0841B82808410595074191020741B7
:10248C005971064157E105418A520541EAC404419C
:10249C00783804412CAD034105230341FF990241D7
:1024AC0015120241478B01418D050141E880004125
:1024BC00A2FAFF408EF5FE408CF2FD4097F1FC40F5
:1024CC00A8F2FB40B8F5FA40C2FAF940C101F94054
:1024DC00AD0AF8408115F7403A22F640CF30F5406E
:1024EC003A41F4407A53F3408667F2405B7DF14009
:1024FC00F094F04045AEEF4052C9EE4013E6ED408B
:10250C008404ED409C24EC405C46EB40BC69EA4002
:10251C00B98EE9404CB5E84074DDE7402B07E74045
:10252C006C32E640355FE5407E8DE44047BDE340CC
:10253C0089EEE2404021E2406B55E140038BE040E4
:10254C0005C2DF406EFADE403B34DE40656FDD4095
:10255C00EDABDC40CBE9DB40FE28DB408169DA40A7
:10256C0054ABD94070EED840D132D8407778D740B0
:10257C005DBFD6407F07D640DD50D5406F9BD44021
:10258C0036E7D3402D34D3405182D240A2D1D14032
:10259C001822D140B473D04074C6CF40501ACF40EB
:1025AC00486FCE405AC5CD40841CCD40C374CC403E
:1025BC0012CECB407028CB40DA83CA404EE0C940E3
:1025CC00CB3DC9404C9CC840CEFBC740515CC7407A
:1025DC00D1BDC6404D20C640C383C5402DE8C44084
:1025EC008E4DC440DFB3C340201BC3404F83C24059
:1025FC006CECC1406F56C1405BC1C0402C2DC0403B
:10260C00DF99BF407407BF40E875BE403BE5BD4055
:10261C006755BD406DC6BC404A38BC40FCAABB40A7
:10262C00821EBB40DA92BA400108BA40F87DB9402C
:10263C00B8F4B840466CB8409BE4B740B75DB740BF
:10264C0099D7B6403D52B640A5CDB540CB49B54023
:10265C00B2C6B4405444B440B3C2B340CC41B3400E
:10266C009EC1B2402442B24061C3B1405245B14018
:10267C00F5C7B0404B4BB0404CCFAF40FE53AF40D2
:10268C005CD9AE40655FAE4017E6AD40726DAD40B3
:10269C0075F5AC401C7EAC406807AC405691AB4025
:1026AC00E71BAB4016A7AA40E632AA4053BFA9408D
:1026BC005E4CA94004DAA8404268A8401AF7A7402B
:1026CC008A86A7409016A7402DA7A6405C38A64046
:1026DC001FCAA540725CA54058EFA440CD82A4400F
:1026EC00D116A44060ABA3407F40A34028D6A240A3
:1026FC00596CA2401503A240589AA1402532A14022
:10270C0075CAA0404C63A040A4FC9F4083969F4098
:10271C00E2309F40C2CB9E4023679E4002039E4006
:10272C00609F9D403A3C9D4092D99C4066779C406E
:10273C00B3159C407AB49B40BB539B4073F39A40B7
:10274C00A3939A4048349A4063D59940F3769940C4
:10275C00F61899406DBB9840555E9840AE01984074
:10276C0076A59740B049974059EE96406E939640A7
:10277C00F1389640E1DE95403C859540042C95401F
:10278C0035D39440CE7A9440D12294403CCB9340A4
:10279C000E749340491D9340E7C69240EB709240F3
:1027AC00541B924020C6914050719140E31C9140C3
:1027BC00D6C890402C759040E0219040F6CE8F40CA
:1027CC006C7C8F403D2A8F406FD88E40FD868E40AA
:1027DC00E7358E4030E58D40D1948D40CE448D4010
:1027EC0025F58C40D7A58C40E2568C4044088C4093
:1027FC00FEB98B40126C8B40791E8B4037D18A40CE
:10280C004D848A40B7378A4074EB8940869F894053
:10281C00EB538940A2088940ADBD88400A738840BB
:10282C00B9288840B7DE874005958740A34B874081
:10283C0093028740CEB98640587186403329864032
:10284C0058E18540CA99854089528540950B854051
:10285C00EBC484408D7E844078388440AEF2834053
:10286C002CAD8340F5678340052383405DDE8240B9
:10287C00FE998240E7558240171282408BCE8140F0
:10288C00468B8140474881408E05814018C380406B
:10289C00E7808040FB3E8040A0FA7F40D5777F40A8
:1028AC008CF57E40C9737E408CF27D40D2717D40A8
:1028BC0095F17C40DE717C40A6F27B40EF737B404F
:1028CC00B6F57A40FF777A40C2FA7940027E7940B9
:1028DC00C1017940F9857840AA0A7840DA8F7740AF
:1028EC0083157740A29B76403A22764048A97540E2
:1028FC00CF307540CCB874403A41744021CA734013
:10290C007A53734048DD72408467724039F27140EB
:10291C005B7D7140EE087140F29470406421704010
:10292C0047AE6F40973B6F4054C96E407E576E4028
:10293C0015E66D4014756D4081046D405B946C40E0
:10294C009E246C404AB56B405A466B40D8D76A40BF
:10295C00BE696A4009FC6940B98E6940D121694061
:10296C004EB568403049684076DD67401D7267405F
:10297C002D076740999C66406E3266409FC8654043
:10298C00355F654027F664407E8D64403125644098
:10299C0045BD6340B955634089EE6240B5876240DE
:1029AC003E21624028BB6140695561400BF060409C
:1029BC00008B60405726604005C25F400B5E5F4055
:1029CC006EFA5E4029975E403B345E40A6D15D4076
:1029DC00656F5D407C0D5D40EBAB5C40B24A5C408A
:1029EC00CDE95B403B895B40FE285B4015C95A40F2
:1029FC0083695A40420A5A4054AB5940BA4C594028
:102A0C0070EE584079905840D33258407CD557409E
:102A1C0079785740C11B57405DBF564045635640BF
:102A2C008107564008AC5540DB505540FDF55440ED
:102A3C006F9B54402D41544036E753408B8D53408F
:102A4C002F3453401ADB524051825240D429524009
:102A5C00A2D15140B779514018225140C1CA5040BF
:102A6C00B4735040EF1C504071C64F403F704F4004
:102A7C00501A4F40A8C44E40486F4E402E1A4E403C
:102A8C005DC54D40CE704D40861C4D4082C84C40BB
:102A9C00C1744C4047214C4010CE4B40207B4B40E6
:102AAC0070284B4002D64A40DC834A40F4314A40FD
:102ABC0050E04940EB8E4940C93D4940EAEC484062
:102ACC00499C4840EC4B4840CEFB4740EFAB47405D
:102ADC00535C4740F20C4740D3BD4640F06E464035
:102AEC004F204640E9D14540C3834540DB35454046
:102AFC002DE84440BF9A44408C4D444097004440DC
:102B0C00DDB3434062674340221B43401CCF42402D
:102B1C0051834240C13742406CEC414051A141408D
:102B2C0071564140C80B414059C140402577404047
:102B3C002C2D404069E33F40E1993F408F503F408E
:102B4C0074073F4094BE3E40EA753E40772D3E40B0
:102B5C003BE53D40349D3D4069553D40D00D3D40E9
:102B6C006DC63C40417F3C404C383C4088F13B407A
:102B7C00FCAA3B40A6643B40821E3B4095D83A40A1
:102B8C00DA923A40554D3A4003083A40E3C2394094
:102B9C00F67D39403F393940BAF4384064B038409A
:102BAC00446C3840562838409BE437400EA13740DF
:102BBC00B75D37408F1A374099D73640D19436409D
:102BCC003B523640D80F3640A3CD3540A08B354014
:102BDC00CB49354029083540B0C634406A8534406D
:102BEC00564434406D033440B5C2334028823340E0
:102BFC00CC4133409F0133409CC13240CB813240A9
:102C0C0024423240AC02324061C3314045843140F1
:102C1C00524531408E063140F7C730408B893040E9
:102C2C00494B3040350D30404FCF2F408E912F40C7
:102C3C0000542F4098162F405ED92E40499C2E40B0
:102C4C00635F2E40AB222E4019E62D40B0A92D40DB
:102C5C00726D2D405D312D4073F52C40B2B92C4076
:102C6C001C7E2C40AF422C4068072C404BCC2B4098
:102C7C0058912B408A562B40E71B2B4069E12A4088
:102C8C0016A72A40EC6C2A40E8322A4009F9294060
:102C9C0055BF2940C68529405E4C29401B1329404D
:102CAC0001DA28400EA12840406828409D2F28407A
:102CBC001AF72740BEBE27408C8627407B4E274004
:102CCC0090162740CADE26402AA72640B16F264020
:102CDC005C3826402A0126401DCA254036932540E3
:102CEC00745C2540D525254056EF244002B924407C
:102CFC00CB822440BE4C2440D316244009E123400F
:102D0C0060AB2340DE7523407D402340410B2340C4
:102D1C0028D6224030A12240596C2240A8372240AC
:102D2C0015032240A7CE21405B9A21402C662140FE
:102D3C00233221403BFE204075CA2040D1962040D2
:102D4C0049632040E82F2040A4FC1F4082C91F404B
:102D5C0081961F40A2631F40E0301F4043FE1E407F
:102D6C00C0CB1E4063991E4023671E4001351E4098
:102D7C0004031E4020D11D405E9F1D40BD6D1D40B3
:102D8C003A3C1D40D90A1D4094D91C406DA81C40EA
:102D9C0064771C407C461C40B5151C4008E51B4064
:102DAC007CB41B400E841B40BD531B4089231B402D
:102DBC0073F31A407EC31A40A3931A40E9631A4076
:102DCC0048341A40C9041A4063D519401EA619404C
:102DDC00F3761940E5471940F818194025EA1840D0
:102DEC006BBB1840D28C1840535E1840F12F184022
:102DFC00AC01184084D3174076A51740857717404F
:102E0C00B2491740F81B174057EE1640D7C0164072
:102E1C006C93164023661640F3381640DD0B1640B3
:102E2C00E3DE154003B215403C8515409258154021
:102E3C00022C15408FFF144035D31440F4A61440D7
:102E4C00D17A1440C24E1440D1221440F9F61340EA
:102E5C003ECB1340999F1340107413409D48134070
:102E6C00471D13400AF21240E7C61240DC9B124089
:102E7C00EB70124013461240541B1240AEF011403E
:102E8C0022C61140AA9B1140507111400F471140AE
:102E9C00E31C1140D0F21040D6C81040F59E1040F3
:102EAC00297510407B4B1040E22110405DF80F401B
:102EBC00F6CE0F40A4A50F406C7C0F4048530F403A
:102ECC003D2A0F404B010F406FD80E40ABAF0E4068
:102EDC00FD860E40685E0E40E7350E40800D0E40BC
:102EEC002EE50D40F5BC0D40D1940D40C66C0D4047
:102EFC00D0440D40EF1C0D4027F50C4075CD0C4017
:102F0C00D7A50C40527E0C40E2560C40882F0C404A
:102F1C0046080C4015E10B40FEB90B40FB920B40F0
:102F2C00126C0B4039450B40791E0B40CFF70A4011
:102F3C0039D10A40B9AA0A404D840A40F65D0A40CC
:102F4C00B5370A408C110A4074EB094072C5094030
:102F5C00849F0940AF790940EB5309403C2E09404E
:102F6C00A20809401DE30840ADBD08405298084036
:102F7C0008730840D74D0840B7280840AC030840F8
:102F8C00B5DE0740D4B90740079507404C700740A1
:102F9C00A54B07400F2707409302074027DE06404A
:102FAC00D0B9064089950640587106403C4D064004
:102FBC00302906403A05064058E1054088BD0540D9
:102FCC00CC990540217605408B520540062F0540D3
:102FDC00950B054036E80440EBC40440B2A1044014
:102FEC008D7E0440795B044076380440871504409C
:102FFC00AEF20340E6CF03402EAD0340878A034078
:10300C00F56703407445034003230340A8000340C5
:10301C005DDE024027BC0240FE990240EA77024086
:10302C00E7550240F4330240171202404AF00140C7
:10303C0089CE0140DEAC0140488B0140BE690140A5
:10304C0049480140E12601408E0501404BE4004017
:10305C001AC30040F9A10040E9800040E95F00403C
:10306C00FB3E00401D1E0040A0FAFF3F28B9FF3F69
:10307C00D177FF3FA436FF3F90F5FE3F9EB4FE3F55
:10308C00CD73FE3F1E33FE3F88F2FD3F1CB2FD3F69
:10309C00D271FD3FA131FD3F99F1FC3FABB1FC3F3B
:1030AC00DE71FC3F3332FC3FAAF2FB3F39B3FB3FEE
:1030BC00F373FB3FC634FB3FBAF5FA3FC8B6FA3F91
:1030CC00FF77FA3F5039FA3FC2FAF93F56BCF93F45
:1030DC00027EF93FD13FF93FC101F93FCAC3F83F26
:1030EC00FD85F83F4148F83FAF0AF83F36CDF73F32
:1030FC00DE8FF73FA052F73F8315F73F80D8F63F9E
:10310C009D9BF63FDD5EF63F3622F63FB0E5F53F80
:10311C004CA9F53FF86CF53FCF30F53FBFF4F43FC9
:10312C00C7B8F43FF27CF43F3E41F43FA305F43FB3
:10313C0021CAF33FC18EF33F7A53F33F5518F33F47
:10314C0048DDF23F55A2F23F8467F23FD42CF23FA8
:10315C0034F2F13FB7B7F13F5B7DF13F1843F13FDC
:10316C00EE08F13FDDCEF03FEE94F03F185BF03F00
:10317C006421F03FC9E7EF3F47AEEF3FDE74EF3F0E
:10318C00973BEF3F6902EF3F54C9EE3F5890EE3F3B
:10319C007E57EE3FBD1EEE3F15E6ED3F86ADED3F93
:1031AC001975ED3FBC3CED3F8104ED3F60CCEC3F2D
:1031BC005794EC3F705CEC3F9A24EC3FE5ECEB3F12
:1031CC004AB5EB3FC87DEB3F5F46EB3F0F0FEB3F44
:1031DC00D8D7EA3FBAA0EA3FBE69EA3FD332EA3F0A
:1031EC0009FCE93F50C5E93FB98EE93F3A58E93F40
:1031FC00CD21E93F81EBE83F4EB5E83F357FE83F15
:10320C002C49E83F4513E83F76DDE73FB9A7E73F98
:10321C001D72E73F9B3CE73F2907E73FD9D1E63FCB
:10322C00999CE63F7B67E63F6E32E63F7AFDE53FD1
:10323C009FC8E53FDE93E53F355FE53FA62AE53FB6
:10324C0027F6E43FCAC1E43F7E8DE43F4B59E43F8F
:10325C003125E43F30F1E33F49BDE33F7289E33F61
:10326C00B455E33F1822E33F85EEE23F13BBE23F48
:10327C00BA87E23F7154E23F4221E23F24EEE13F44
:10328C0028BBE13F3C88E13F6955E13FAF22E13F7C
:10329C0007F0E03F77BDE03F008BE03FA358E03FF5
:1032AC005726E03F23F4DF3F09C2DF3F0090DF3FAA
:1032BC000F5EDF3F302CDF3F72FADE3FBDC8DE3FD2
:1032CC002997DE3FA565DE3F3B34DE3FE202DE3F61
:1032DC00A2D1DD3F7BA0DD3F656FDD3F683EDD3F6A
:1032EC007C0DDD3FA9DCDC3FEFABDC3F467BDC3FFC
:1032FC00AE4ADC3F371ADC3FC9E9DB3F7CB9DB3F28
:10330C003789DB3F1459DB3FFA28DB3F01F9DA3F01
:10331C0019C9DA3F4299DA3F8369DA3FD639DA3F85
:10332C00420ADA3FBEDAD93F54ABD93FFA7BD93FD8
:10333C00BA4CD93F8A1DD93F6CEED83F66BFD83FF7
:10334C007990D83F9E61D83FD332D83F1904D83FEB
:10335C0078D5D73FF0A6D73F7978D73F124AD73FD9
:10336C00C51BD73F89EDD63F5DBFD63F4B91D63FAE
:10337C004963D63F5935D63F8107D63FBAD9D53F99
:10338C0004ACD53F677ED53FDB50D53F6823D53F96
:10339C00FDF5D43FACC8D43F6B9BD43F446ED43FB7
:1033AC002D41D43F2714D43F3AE7D33F56BAD33FED
:1033BC008B8DD33FD060D33F2F34D33F9E07D33F69
:1033CC0016DBD23FB0AED23F5182D23F0C56D23F29
:1033DC00D829D23FB5FDD13FA2D1D13FA0A5D13F35
:1033EC00B779D13FE04DD13F1822D13F62F6D03FA3
:1033FC00C5CAD03F309FD03FB473D03F4948D03F6F
:10340C00EF1CD03FA6F1CF3F76C6CF3F4E9BCF3FB0
:10341C003F70CF3F4145CF3F4C1ACF3F70EFCE3F6F
:10342C00ACC4CE3FF299CE3F486FCE3FB744CE3FAF
:10343C002E1ACE3FBFEFCD3F58C5CD3F0B9BCD3F96
:10344C00CE70CD3FA246CD3F861CCD3F7CF2CC3F0B
:10345C0082C8CC3F999ECC3FC174CC3FF94ACC3F3B
:10346C004B21CC3FA5F7CB3F10CECB3F94A4CB3F09
:10347C00207BCB3FBD51CB3F7428CB3F32FFCA3FA3
:10348C0002D6CA3FEBACCA3FDC83CA3FDE5ACA3F06
:10349C00F031CA3F1C09CA3F50E0C93F95B7C93F3C
:1034AC00EB8EC93F5166C93FC93DC93F5115C93F54
:1034BC00EAECC83F93C4C83F4E9CC83F1074C83F49
:1034CC00EC4BC83FD923C83FCEFBC73FD4D3C73F33
:1034DC00F3ABC73F1B84C73F535CC73F9C34C73F0C
:1034EC00F60CC73F58E5C63FD3BDC63F5796C63FFF
:1034FC00F46EC63F9947C63F4F20C63F16F9C53FED
:10350C00E5D1C53FCEAAC53FBE83C53FC85CC53F0C
:10351C00DB35C53FFE0EC53F32E8C43F6EC1C43F2C
:10352C00BB9AC43F2174C43F904DC43F0F27C43F86
:10353C009700C43F38DAC33FE1B3C33F9B8DC33F11
:10354C005E67C33F3A41C33F1E1BC33F12F5C23FE8
:10355C0018CFC23F2EA9C23F4D83C23F7D5DC23FF3
:10356C00BD37C23F0E12C23F68ECC13FDAC6C13F45
:10357C004DA1C13FD97BC13F6D56C13F1231C13FF7
:10358C00C80BC13F8EE6C03F5DC1C03F3D9CC03FF4
:10359C002577C03F2652C03F282DC03F4208C03F70
:1035AC006DE3BF3FA1BEBF3FDD99BF3F3275BF3F4B
:1035BC008F50BF3FFE2BBF3F7407BF3FFCE2BE3FA7
:1035CC0094BEBE3F359ABE3FE675BE3FA851BE3F86
:1035DC00732DBE3F4E09BE3F3BE5BD3F2FC1BD3FE6
:1035EC00349DBD3F4A79BD3F6955BD3F9831BD3FC4
:1035FC00D00DBD3F18EABC3F69C6BC3FD3A2BC3F4F
:10360C003D7FBC3FC05BBC3F4C38BC3FE014BC3F73
:10361C0084F1BB3F3ACEBB3F00ABBB3FC687BB3F41
:10362C00A664BB3F8D41BB3F861EBB3F87FBBA3FA9
:10363C0090D8BA3FB3B5BA3FDE92BA3F1170BA3FD9
:10364C00554DBA3FA22ABA3FFF07BA3F6DE5B93FC5
:10365C00E3C2B93F6AA0B93FFA7DB93F925BB93F6B
:10366C003B39B93FF416B93FB6F4B83F89D2B83FED
:10367C0064B0B83F508EB83F446CB83F494AB83F2D
:10368C005628B83F7506B83F9BE4B73FD2C2B73F48
:10369C0012A1B73F5A7FB73FB35DB73F1D3CB73F51
:1036AC008F1AB73F09F9B63F95D7B63F31B6B63F3B
:1036BC00D594B63F8273B63F3F52B63F0531B63F05
:1036CC00DC0FB63FBBEEB53FA3CDB53F9BACB53FD2
:1036DC00A48BB53FAD6AB53FCF49B53FF228B53F96
:1036EC002508B53F68E7B43FB5C6B43F09A6B43F5B
:1036FC006E85B43FDC64B43F5244B43FD923B43F2D
:10370C007103B43F08E3B33FB1C2B33F6AA2B33F06
:10371C002C82B33FF661B33FC841B33FAB21B33FFB
:10372C009F01B33F9CE1B23FA0C1B23FADA1B23FFC
:10373C00CB81B23FF261B23F2942B23F6022B23F2D
:10374C00B002B23F00E3B13F61C3B13FCAA3B13F86
:10375C004584B13FC764B13F5245B13FEE25B13FFF
:10376C009206B13F3EE7B03FF3C7B03FB9A8B03FB8
:10377C008789B03F666AB03F4D4BB03F3D2CB03FA0
:10378C00350DB03F3DEEAF3F4FCFAF3F68B0AF3FD1
:10379C009291AF3FC572AF3F0054AF3F4435AF3F3E
:1037AC009816AF3FF5F7AE3F5AD9AE3FCFBAAE3F02
:1037BC004E9CAE3FD47DAE3F635FAE3F0341AE3F08
:1037CC00AB22AE3F5C04AE3F15E6AD3FDEC7AD3F6E
:1037DC00B0A9AD3F8B8BAD3F766DAD3F614FAD3F2B
:1037EC005D31AD3F6213AD3F77F5AC3F8CD7AC3F4D
:1037FC00B2B9AC3FE19BAC3F177EAC3F5F60AC3FD6
:10380C00AF42AC3F0725AC3F6807AC3FD1E9AB3FBB
:10381C004BCCAB3FCDAEAB3F5891AB3FEB73AB3F1B
:10382C008656AB3F3239AB3FE71BAB3FA4FEAA3FFA
:10383C0069E1AA3F3FC4AA3F16A7AA3FFC89AA3F49
:10384C00EC6CAA3FE34FAA3FE432AA3FF415AA3F1F
:10385C0005F9A93F27DCA93F51BFA93F83A2A93F86
:10386C00C685A93F0A69A93F5E4CA93FBA2FA93F5B
:10387C001F13A93F8CF6A83F01DAA83F88BDA83FCB
:10388C000EA1A83FA584A83F4568A83FEC4BA83FD4
:10389C009D2FA83F5513A83F16F7A73FE8DAA73F7F
:1038AC00C2BEA73F9CA2A73F8786A73F7B6AA73FC4
:1038BC00774EA73F8332A73F9016A73FADFAA63F9E
:1038CC00CADEA63FF8C2A63F2FA7A63F6E8BA63F27
:1038DC00B56FA63F0454A63F5C38A63FBD1CA63F5F
:1038EC002E01A63F9FE5A53F21CAA53FA3AEA53F4C
:1038FC003693A53FD177A53F745CA53F2041A53FEA
:10390C00D525A53F910AA53F56EFA43F2CD4A43F43
:10391C0002B9A43FE09DA43FCF82A43FBE67A43F61
:10392C00BE4CA43FC631A43FCE16A43FE7FBA33F39
:10393C0009E1A33F32C6A33F65ABA33F9F90A33FD2
:10394C00E275A33F2D5BA33F8140A33FDD25A33F41
:10395C00410BA33FAEF0A23F24D6A23FAABBA23F8D
:10396C0030A1A23FBE86A23F5D6CA23FFC51A23F9C
:10397C00A437A23F5C1DA23F1503A23FDEE8A13F86
:10398C00A7CEA13F78B4A13F5B9AA13F3D80A13F58
:10399C003066A13F234CA13F2732A13F2B18A13FFA
:1039AC003FFEA03F54E4A03F71CAA03F9FB0A03F90
:1039BC00CC96A03F0B7DA03F4963A03F9949A03F07
:1039CC00E82FA03F4016A03FA8FC9F3F11E39F3F6C
:1039DC0082C99F3FFBAF9F3F85969F3F0F7D9F3FC7
:1039EC00A2639F3F3C4A9F3FE0309F3F8B179F3F16
:1039FC003FFE9E3FFCE49E3FC0CB9E3F8EB29E3F5F
:103A0C0063999E3F41809E3F1F679E3F0E4E9E3F97
:103A1C0005359E3FFC1B9E3F04039E3F0CEA9D3FD9
:103A2C0024D19D3F3DB89D3F5E9F9D3F87869D3F26
:103A3C00C26D9D3FFC549D3F3E3C9D3F89239D3F65
:103A4C00D40A9D3F30F29C3F94D99C3FF9C09C3FD7
:103A5C006DA89C3FE28F9C3F68779C3FEE5E9C3F3D
:103A6C007C469C3F122E9C3FB1159C3F59FD9B3FC1
:103A7C0008E59B3FC0CC9B3F78B49B3F419C9B3F50
:103A8C000A849B3FE36B9B3FBD539B3F9F3B9B3FFC
:103A9C0089239B3F7C0B9B3F77F39A3F73DB9A3FC9
:103AAC007EC39A3F8AAB9A3FA7939A3FC47B9A3FB7
:103ABC00E9639A3F164C9A3F4C349A3F821C9A3FCA
:103ACC00C9049A3F0FED993F67D5993FBEBD993F09
:103ADC001EA6993F868E993FF776993F675F993F6F
:103AEC00E947993F6A30993FF418993F8601993F0D
:103AFC0021EA983FC4D2983F6FBB983F1AA4983FD5
:103B0C00CE8C983F9275983F575E983F2447983FCC
:103B1C00F12F983FCE18983FAC01983F92EA973F0F
:103B2C0080D3973F77BC973F76A5973F7E8E973F84
:103B3C008577973F9560973FAE49973FCF32973F38
:103B4C00F81B973F2105973F5BEE963F95D7963F25
:103B5C00D7C0963F22AA963F6C93963FC87C963F5F
:103B6C002366963F874F963FF338963F6022963FE9
:103B7C00DD0B963F5AF5953FDFDE953F6DC8953FBF
:103B8C0003B2953F999B953F4085953FE76E953FD6
:103B9C009758953F4642953F062C953FC615953F45
:103BAC008FFF943F60E9943F31D3943F12BD943F13
:103BBC00F4A6943FDE90943FD17A943FC364943F33
:103BCC00C64E943FC938943FD522943FE10C943FA4
:103BDC00FDF6933F1AE1933F3ECB933F6CB5933F79
:103BEC00999F933FCE89933F0C74933F535E933FC1
:103BFC00A148933FF032933F471D933FA707933F54
:103C0C000FF2923F77DC923FE7C6923F60B1923F52
:103C1C00E19B923F6286923FEB70923F7D5B923FBD
:103C2C001746923FB130923F541B923FFF05923F93
:103C3C00AAF0913F66DB913F22C6913FE6B0913FDF
:103C4C00AA9B913F7F86913F5471913F295C913F94
:103C5C000F47913FF431913FE31C913FD907913FBE
:103C6C00D0F2903FCEDD903FD6C8903FE5B3903F69
:103C7C00F59E903F0D8A903F2E75903F4E60903F81
:103C8C00774B903FA836903FE221903F1B0D903F21
:103C9C005DF88F3FA8E38F3FF2CE8F3F4DBA8F3F39
:103CAC00A9A58F3F04918F3F677C8F3FD3678F3FD0
:103CBC0048538F3FBC3E8F3F412A8F3FBE158F3FED
:103CCC004B018F3FD9EC8E3F6FD88E3F0DC48E3F8A
:103CDC00ABAF8E3F529B8E3F01878E3FB0728E3FB3
:103CEC00685E8E3F274A8E3FE7358E3FAF218E3F71
:103CFC00800D8E3F51F98D3F32E58D3F0BD18D3FBD
:103D0C00F5BC8D3FDFA88D3FD1948D3FCB808D3F8F
:103D1C00C66C8D3FC9588D3FCC448D3FE0308D3FF4
:103D2C00F31C8D3F07098D3F23F58C3F48E18C3FF9
:103D3C0075CD8C3FA1B98C3FD7A58C3F14928C3F8D
:103D4C00527E8C3F986A8C3FDE568C3F35438C3FBD
:103D5C008C2F8C3FE31B8C3F42088C3FAAF48B3F8B
:103D6C001AE18B3F8ACD8B3F02BA8B3F7AA68B3FF1
:103D7C00FB928B3F847F8B3F0D6C8B3F9F588B3F0F
:103D8C0039458B3FD3318B3F751E8B3F200B8B3FBF
:103D9C00CBF78A3F7EE48A3F39D18A3FF5BD8A3F13
:103DAC00B9AA8A3F7D978A3F49848A3F1D718A3F11
:103DBC00FB5D8A3FD84A8A3FB5378A3F9A248A3FAF
:103DCC0088118A3F7EFE893F74EB893F73D8893F07
:103DDC0072C5893F79B2893F889F893F978C893F0B
:103DEC00AF79893FC766893FE753893F1041893FC7
:103DFC00412E893F711B893FA208893FDCF5883F22
:103E0C001DE3883F68D0883FB2BD883FFCAA883F3D
:103E1C004E98883FA985883F0C73883F7060883F17
:103E2C00D34D883F473B883FBB28883F2F16883FA0
:103E3C00AC03883F30F1873FB5DE873F42CC873FEC
:103E4C00D8B9873F6EA7873F0395873FAA82873FE4
:103E5C004870873FF65D873FA54B873F5439873FB6
:103E6C001327873FD314873F9302873F5AF0863F2F
:103E7C0022DE863FFBCB863FCBB9863FADA7863F84
:103E8C008E95863F6F83863F5871863F4A5F863F8B
:103E9C003C4D863F363B863F3029863F3317863F65
:103EAC003E05863F49F3853F54E1853F70CF853F02
:103EBC0084BD853FA8AB853FCC99853FF087853F76
:103ECC001D76853F5264853F8752853FC440853FB0
:103EDC00012F853F471D853F950B853FE4F9843FB6
:103EEC003AE8843F91D6843FE7C4843F4EB3843F85
:103EFC00B6A1843F1D90843F8D7E843FFD6C843F32
:103F0C00755B843FF549843F7638843FFE26843FB9
:103F1C008715843F1904843FAAF2833F43E1833F12
:103F2C00E6CF833F88BE833F2AAD833FD49B833F3C
:103F3C00878A833F3A79833FF567833FB056833F47
:103F4C007445833F3734833F0323833FD811833F2A
:103F5C00AC00833F80EF823F5DDE823F42CD823FEB
:103F6C0027BC823F0DAB823F029A823FF088823F92
:103F7C00E677823FE466823FEB55823FE944823F1D
:103F8C00F833823F0723823F1712823F2E01823F74
:103F9C0045F0813F65DF813F8ECE813FB6BD813FCD
:103FAC00DEAC813F0F9C813F488B813F817A813F02
:103FBC00C269813F0459813F4548813F8F37813F1A
:103FCC00E126813F3316813F8E05813FE8F4803F27
:103FDC004BE4803FAED3803F1AC3803F85B2803F15
:103FEC00F9A1803F6D91803FE980803F6570803FF3
:103FFC00E95F803F6E4F803FFB3E803F882E803FC5
:10400C001D1E803FB20D803F000200000602000022
:10401C000D02000013020000190200001F02000034
:10402C00260200002C0200003202000038020000C0
:10403C003F020000450200004B020000510200004C
:10404C00580200005E020000640200006A020000D8
:10405C0070020000760200007C0200008202000068
:10406C00890200008F020000950200009B020000F4
:10407C00A1020000A7020000AC020000B202000086
:10408C00B8020000BE020000C4020000CA02000018
:10409C00CF020000D5020000DB020000E1020000AC
:1040AC00E6020000EC020000F1020000F702000042
:1040BC00FC02000002030000070300000D030000D7
:1040CC0012030000170300001C0300002203000071
:1040DC00270300002C03000031030000360300000E
:1040EC003B03000040030000450300004A030000AE
:1040FC004E03000053030000580300005C03000053
:10410C0061030000660300006A0300006E030000F8
:10411C0073030000770300007B03000080030000A2
:10412C0084030000880300008C030000900300004F
:10413C0094030000970300009B0300009F03000002
:10414C00A3030000A6030000AA030000AD030000B7
:10415C00B1030000B4030000B7030000BA03000071
:10416C00BD030000C1030000C4030000C60300002F
:10417C00C9030000CC030000CF030000D1030000F2
:10418C00D4030000D7030000D9030000DB030000B8
:10419C00DE030000E0030000E2030000E403000083
:1041AC00E6030000E8030000EA030000EC03000053
:1041BC00ED030000EF030000F1030000F203000028
:1041CC00F4030000F5030000F6030000F703000001
:1041DC00F8030000F9030000FA030000FB030000E1
:1041EC00FC030000FD030000FE030000FE030000C2
:1041FC00FF030000FF030000FF03000000040000A9
:10420C000004000000040000000400000004000092
:10421C000004000000040000FF030000FF03000086
:10422C00FF030000FE030000FE030000FD0300007E
:10423C00FC030000FB030000FA030000F90300007C
:10424C00F8030000F7030000F6030000F50300007C
:10425C00F4030000F2030000F1030000EF03000080
:10426C00ED030000EC030000EA030000E80300008B
:10427C00E6030000E4030000E2030000E00300009A
:10428C00DE030000DB030000D9030000D7030000AD
:10429C00D4030000D1030000CF030000CC030000C6
:1042AC00C9030000C6030000C4030000C1030000E2
:1042BC00BD030000BA030000B7030000B403000004
:1042CC00B1030000AD030000AA030000A603000028
:1042DC00A30300009F0300009B0300009703000052
:1042EC0094030000900300008C030000880300007E
:1042FC0084030000800300007B03000077030000B0
:10430C00730300006E0300006A03000066030000E4
:10431C00610300005C03000058030000530300001D
:10432C004E0300004A030000450300004003000058
:10433C003B03000036030000310300002C03000097
:10434C0027030000220300001C03000017030000D9
:10435C00120300000D03000007030000020300001D
:10436C00FC020000F7020000F1020000EC02000069
:10437C00E6020000E1020000DB020000D5020000B2
:10438C00CF020000CA020000C4020000BE020000FE
:10439C00B8020000B2020000AC020000A70200004C
:1043AC00A10200009B020000950200008F02000099
:1043BC0089020000820200007C02000076020000EC
:1043CC00700200006A020000640200005E0200003D
:1043DC0058020000510200004B0200004502000090
:1043EC003F02000038020000320200002C020000E4
:1043FC00260200001F020000190200001302000038
:10440C000D0200000602000000020000FA0100008C
:10441C00F3010000ED010000E7010000E1010000E4
:10442C00DA010000D4010000CE010000C801000038
:10443C00C1010000BB010000B5010000AF0100008C
:10444C00A8010000A20100009C01000096010000E0
:10445C00900100008A010000840100007E01000030
:10446C0077010000710100006B0100006501000084
:10447C005F01000059010000540100004E010000D2
:10448C0048010000420100003C0100003601000020
:10449C00310100002B010000250100001F0100006C
:1044AC001A010000140100000F01000009010000B6
:1044BC0004010000FE000000F9000000F300000001
:1044CC00EE000000E9000000E4000000DE00000047
:1044DC00D9000000D4000000CF000000CA0000008A
:1044EC00C5000000C0000000BB000000B6000000CA
:1044FC00B2000000AD000000A8000000A400000005
:10450C009F0000009A00000096000000920000003E
:10451C008D00000089000000850000008000000074
:10452C007C000000780000007400000070000000A7
:10453C006C000000690000006500000061000000D4
:10454C005D0000005A0000005600000053000000FF
:10455C004F0000004C000000490000004600000025
:10456C00430000003F0000003C0000003A00000047
:10457C003700000034000000310000002F00000064
:10458C002C0000002900000027000000250000007E
:10459C0022000000200000001E0000001C00000093
:1045AC001A000000180000001600000014000000A3
:1045BC0013000000110000000F0000000E000000AE
:1045CC000C0000000B0000000A00000009000000B5
:1045DC0008000000070000000600000005000000B5
:1045EC0004000000030000000200000002000000B4
:1045FC0001000000010000000100000000000000AC
:10460C00000000000000000000000000000000009E
:10461C00000000000000000001000000010000008C
:10462C000100000002000000020000000300000076
:10463C000400000005000000060000000700000058
:10464C0008000000090000000A0000000B00000038
:10465C000C0000000E0000000F0000001100000014
:10466C0013000000140000001600000018000000E9
:10467C001A0000001C0000001E00000020000000BA
:10468C002200000025000000270000002900000087
:10469C002C0000002F00000031000000340000004E
:1046AC00370000003A0000003C0000003F00000012
:1046BC004300000046000000490000004C000000D0
:1046CC004F00000053000000560000005A0000008C
:1046DC005D00000061000000650000006900000042
:1046EC006C000000700000007400000078000000F6
:1046FC007C000000800000008500000089000000A4
:10470C008D00000092000000960000009A0000004E
:10471C009F000000A4000000A8000000AD000000F5
:10472C00B2000000B6000000BB000000C00000009A
:10473C00C5000000CA000000CF000000D40000003B
:10474C00D9000000DE000000E4000000E9000000D9
:10475C00EE000000F3000000F9000000FE00000075
:10476C0004010000090100000F0100001401000009
:10477C001A0100001F010000250100002B010000A0
:10478C0031010000360100003C0100004201000034
:10479C00480100004E0100005401000059010000C6
:1047AC005F010000650100006B0100007101000059
:1047BC00770100007E010000840100008A010000E6
:1047CC0090010000960100009C010000A201000075
:1047DC00A8010000AF010000B5010000BB01000002
:1047EC00C1010000C8010000CE010000D40100008E
:1047FC00DA010000E1010000E7010000ED0100001A
:10480C00F3010000FA01000010000000D428002081
:10481C000000000070290020A82C002000000000DF
:10482C0000000000B82C0020000000000000000078
:10483C00100000000000000000000100000000005B
:10484C00000000000000020000000000000000005A
:10485C000000030000000000000000000000FF004A
:10486C000000000000B5486801318E4600477046D4
:10487C0009380149884700BD8D1600100000000062
:10488C00503300004C33000054330000523300000E
:10489C004D5300004D4300005334000043340000DE
:1048AC000000000000000000FD1B00108518001027
:0C48BC0045190010C51A0010ED02001094
:04000005100001E9FD
:00000001FF
