:020000041000EA
:1000000000B5324B212058609868022188439860DF
:10001000D860186158612E4B002199600221596106
:100020000121F02299502B49196001219960352056
:1000300000F044F80222904214D00621196600F024
:1000400034F8196E01211966002018661A6600F04E
:100050002CF8196E196E196E052000F02FF8012189
:100060000842F9D1002199601B49196000215960AB
:100070001A491B48016001219960EB211966A021F2
:10008000196600F012F800219960164914480160C1
:100090000121996001BC002800D000471248134993
:1000A000086003C880F30888084703B5996A0420EC
:1000B0000142FBD001200142F8D103BD02B5186610
:1000C0001866FFF7F2FF186E186E02BD00000240BE
:1000D000000000180000070000035F00212200005C
:1000E000F4000018222000A00001001008ED00E03C
:1000F00000000000000000000000000074B24E7A12
:1001000000200420F7010010C3010010C5010010F9
:10011000C1010010C1010010C1010010C101001097
:10012000C1010010C1010010C1010010C701001081
:10013000C1010010C1010010C9010010CB01001065
:10014000CD010010CD010010CD010010CD01001037
:10015000CD010010CD010010CD010010CD01001027
:10016000CD010010CD010010CD010010CD01001017
:10017000CD010010CD010010CD010010CD01001007
:10018000CD010010CD010010CD010010CD010010F7
:10019000CD010010CD010010CD010010CD010010E7
:1001A000CD010010CD010010CD010010CD010010D7
:1001B000CD010010CD010010CD010010CD010010C7
:1001C00000BE00BE00BE00BE00BE00BE00F04BF888
:1001D000103800BEF2EB8871801F00109C1F0010C9
:1001E0003402001090A31AE700202149086006C8D5
:1001F00081F3088810471F48006800282FD10DA4FC
:100200000ECC002902D000F012F8F9E71A491B4A77
:10021000002000E001C19142FCD1194988471949E9
:1002200088471949884700BEFDE701C901C29A42C3
:10023000FBD370479C1F0010C0000020AC180020AA
:1002400088370010000004200000042088370010C8
:1002500000100420001004200000000070470B482C
:1002600001F074FB0047EFF30580C0B27047000057
:1002700008ED00E0000000D0B0180020781C00203D
:100280002911001011030010191200105756000018
:1002900006005250ABB36053341F0010060052509A
:1002A000861C0302441F0010060052505422A29DD7
:1002B0004C1F001005005250DE65F46888370010AE
:1002C000F8B5C04606480749091A8B10C90FC91866
:1002D00010B5491003D0044B002B00D0984710BD37
:1002E000AC180020AC18002000000000054B10B531
:1002F000002B03D00449054800E000BFFFF7E2FFF0
:1003000010BDC04600000000341C0020D81E0010A4
:10031000F0B5C646192000B5D024802500F06EF84F
:10032000FA202406AD0465628000656100F08EFB52
:10033000A5610421192000F049F80122FA201B4B85
:100340001B4F1C4D3B6629681B4E8A431B49984630
:1003500033680A601A4A1B041268002153401B0CC0
:10036000184A1B041360400000F058FB0124434668
:100370000122FA203B662968A3008A430F49F358FB
:100380000A600F4A1B041268002153401B0C0D4ADF
:100390001B041360400000F041FB0B4B0134E318D9
:1003A0005A1E93415B421C40E1E7C046204E0000CC
:1003B0000000054050000540780100205010054025
:1003C0005C0005405C10054060FAFFFF094A10B56B
:1003D00094464024830063441A68C000624080341D
:1003E00014408022520113431C60034B9C4660441E
:1003F000416010BD04C00140004001400123D022F3
:100400008340120693629361094A40219446830017
:1004100063441A68C0004A40803111408022520172
:1004200013431960034B9C460523604443607047A7
:1004300004C001400040014070B5EFF3108C72B66B
:100440000D4D2B68002BFCD0BFF35F8F0724CB082A
:10045000C618C05C01230C40A3401C0004400342AA
:1004600007D118433070BFF35F8F2C608CF3108876
:1004700070BD100000F0D2FE2C0100D0024B1868B5
:100480008007C00F7047C04600C006400021044BE3
:10049000044ABFF35F8F02C39342FAD17047C0464C
:1004A000000100D0800100D0044A1078431CDBB268
:1004B000172B00D9102313707047C046F81700207F
:1004C00083680B4810B584466144624412010901F7
:1004D00059189B185C684A680120944201D802D0E0
:1004E0000020C0B210BD1A680B689A42F9D8F7E72D
:1004F000FFFFFF0F0A4B1968EFF3108072B60A680E
:10050000002AFCD0BFF35F8F1B68BFF35F8F002210
:100510001A6080F3108840BF002000217047C04659
:10052000601C0020F8B5574645464E46DE46E0B50D
:1005300099460CAB1C780DAB1B78070090469A4689
:100540000568002C44D1AC7B002C3BD066002968A8
:100550003619033E89194B78AB73002B00D1EB732E
:1005600000238B704B700B702E4BE218BB6812018E
:100570009B1842461A604A465A600A9A9A600B9A39
:10058000DA6000238B704B700B706B7B9B46002BEB
:1005900032D022005946A8686B68984700281DD0C1
:1005A0005B46584629685B005B448E19033BB0707C
:1005B000CA18CB5C002B00D073705B4614706B7351
:1005C0005C451AD0F0BCBB46B246A946A046F8BD71
:1005D000660029683619033E8919C5E75B465B004A
:1005E0002A685B44033BD3189C709119925D002AE2
:1005F00000D05A705B460B706C7342464B46387D98
:1006000000F008FB051E02D05346002B04D00E9BC1
:10061000002BD7D01D70D5E72100386800F046FDCB
:10062000F5E7C046FFFFFF0FF0B5DE464E465746E2
:1006300045460023E0B58DB00A936B4B8200D3583A
:100640000B90994600239B464B46079300F082FA95
:10065000079C06000F006268EFF3108572B61368FE
:10066000002BFCD022000794BFF35F8F2468637BCC
:100670009946002B66D092685C4B90464B441B0118
:10068000984443461A685B6810001900801BB94102
:1006900000295EDD0B9800F0BDFA00230026984685
:1006A00000279A46079C6368BFF35F8F5A461A601B
:1006B00085F310885346002B08D10028C6D10DB011
:1006C000F0BCBB46B246A946A046F0BD0A9B4146D7
:1006D00018024B461843D047089009916268EFF31F
:1006E000108572B61368002BFCD00794BFF35F8FA0
:1006F0000899099A002A47DB114303D0079B1B691D
:10070000002B5CD1079B1B68D97B002906D01A6897
:100710004800411852184946033A51704A46DA7364
:100720004B46079A013BD168CA5C0132CA545B460A
:10073000079A13615368BFF35F8F5A461A6085F3B7
:10074000108883E700230026984600279A46002059
:10075000A8E7002901D100289CD10021200000F049
:1007600027FC43461E685F689B68079A9A46434683
:10077000DB689846D3684B44013B1B780A931B0205
:100780000343136100208DE72369002BBAD03300A7
:100790003C005B1A94411A002300A74219D89F42DB
:1007A0001BD05946049101210391494602914146CB
:1007B0000191514607980091FFF7B4FEB7E700F0AA
:1007C000C9F9089A099B06000F0092197B419942CA
:1007D000E5D901225242D317E3E79642E1D901223B
:1007E0005242D317DDE7C0464C1C0020FFFFFF0F2D
:1007F000F8B557464E464546DE46E0B5404D814683
:100800008A466A68EFF3108872B61368002BFCD032
:10081000BFF35F8F2E68B47B002C38D0670033683D
:100820003F19033FDB195A78B273002A00D1F273E3
:10083000344AA118AA680901521849461160514664
:100840005160314991600021D160997059701970DF
:10085000737B9B46002B36D022005946B0687368E4
:100860009847002821D05B46584631685B005B44BE
:10087000CF19033BB870CA18CB5C002B00D07B703B
:100880005B46147073735C451ED0002627E06B68CE
:10089000BFF35F8F1C6088F3108801204042F0BCDA
:1008A000BB46B246A946A046F8BD5B465B0032682F
:1008B0005B44033BD3189C70D119D25D002A00D051
:1008C0005A705B460B7074734A465346287D00F09D
:1008D000A1F9061ED9D02100286800F0E7FBEB68DB
:1008E0001B19013B19786B68BFF35F8F00221A60F8
:1008F00088F310880020002ED1D108022043CEE7D3
:10090000FC170020FFFFFF0FF504001010B5124C7C
:100910006368002B04D00A21104800F009FA10BDCA
:1009200023000F4A1021206800F05AFA032000F03B
:1009300005F9032000F0DEF903200A4900F024F94C
:10094000FFF7B2FD084B9C46032360442375074B19
:1009500080006060DC60DEE7FC170020601C002087
:10096000C104001029060010400000344C1C002077
:10097000F0B504000D0006267642F717C646361974
:100980006F4100B58F4213D810D000F0E3F8320069
:100990003B00121A8B41002B14DC002B37D02900AE
:1009A000200000F0E1F880BCB846F0BD8642ECD9EA
:1009B0000026002700F0CEF832003B00121A8B41CF
:1009C000002BEADD30003900FFF712FF0028E6DBDC
:1009D00000239846BC460F4A0F4F7B6A9C4504D8BB
:1009E000B96A8E42DBD99C45D9D11168EFF31080EA
:1009F00072B60B68002BFCD0BFF35F8F1368BFF398
:100A00005F8F4146196080F3108820BFE5E7002A18
:100A1000C5D0D7E7601C00200040054070B5040039
:100A20000D0000F097F802000B002000290080184C
:100A300059418B4205D802D0FFF79AFF70BD824220
:100A4000FAD901204042C117F6E7C04670B506004A
:100A500000F080F8FA2204000D000023300000218D
:100A6000920001F02BF8001969418D4205D802D09F
:100A7000FFF77EFF70BD8442FAD901204042C117C2
:100A8000F6E7C046F0B5D6464F464646C0B5EFF34A
:100A900005823F23134018001038EFF3108C72B614
:100AA00020490A68002AFCD0BFF35F8F012217009B
:100AB00087401D4C1600A24667631C4C2578A04653
:100AC0002C00C4402640224209D1BFF35F8F0E6044
:100AD0008CF31088E0BCBA46B146A846F0BD524639
:100AE000566A134A8400A25896420ED34246114BCE
:100AF000BD43E3581570BFF35F8F00220A608CF38B
:100B00001088002BE6D09847E4E70B4A9B009046FC
:100B100043441A681A60BFF35F8F00230B608CF3A5
:100B20001088D7E7280100D000400540761C00203F
:100B3000641C0020B01B0020D03F054010B5034BC3
:100B400001001800024AFFF777FC10BD741C00205A
:100B5000D81E0010034B596A0A00986A596A8A42E3
:100B6000FAD1704700400540064A536A9942FCD8C2
:100B700007D1044B02E05A6A914202D19A6A82423A
:100B8000F9D370470040054070B504000D00EFF345
:100B9000108672B61A4A1368002BFCD0BFF35F8F21
:100BA000002D1BD0200000F0C1FC164981420AD064
:100BB000200000F0C3FC0121200000F0A5FC01236F
:100BC000A340114A1360114BA400E550BFF35F8F9F
:100BD00000220B4B1A6086F3108870BD0121A140E2
:100BE0000A4BA200D5500A4B20001A788A430549C7
:100BF0001A7000F0CDFC0021200000F085FCE5E734
:100C0000280100D0850A001038600540B01B002084
:100C1000761C0020F0B54F46D6464646C0B50700C4
:100C20002F4C616A0D00A66A616AA942FAD18B4213
:100C300008D805D00120E0BCBA46B146A846F0BDB0
:100C4000B242F7D9EFF3108A72B62648016800293C
:100C5000FCD0BFF35F8F0125BD402349204C88465F
:100C6000097889462943C9B28C46414660460870D6
:100C7000391D890065630A511C49B8004350216A37
:100C80000020294219D0616A0800A66A616A81427F
:100C9000FAD18B4219D801D1B24216D8CC451DD019
:100CA0000F4B1F221D625D6301233A409340104A9F
:100CB0000120136043464A461A70BFF35F8F00223B
:100CC000084B1A608AF31088B5E70020BFF35F8FE6
:100CD0000022044B1A608AF31088ACE70120ECE78D
:100CE00000400540280100D0761C0020641C002034
:100CF00080E200E0EFF3108C72B60A490B68002B1B
:100D0000FCD0BFF35F8F01238340074A074813627B
:100D100002789A430270BFF35F8F00230B608CF35D
:100D200010887047280100D000400540761C002044
:100D3000024B9C46614489000160704740000034CA
:100D400010B50400FFF7B0FB01002000FFF7F0FF33
:100D5000FF232371BFF35F8F10BDC04610B50400A1
:100D6000FFF7A2FB01002000FFF7E2FFFF23A380B3
:100D7000BFF35F8F10BDC04670B5050014001600AC
:100D8000002915D00C00002A12D080686B689847A3
:100D9000296800280ED073009B196200033B1219CA
:100DA000CB18033A9C7088188A5C002A15D106700B
:100DB000200070BD63001B197200033B9219CB1811
:100DC000033A9E7088188A5C002A02D104703400AD
:100DD000EEE75A7004703400EAE75A700670E7E7ED
:100DE00030B583600023CCB2437301330473426097
:100DF0008373C4730D000068012C06D9421C0133B3
:100E0000DBB2137003329C42F9D1FF2129404B0021
:100E10005B18C01800230338437030BDF8B50500D7
:100E20000C1E07D0630001681B19033BCB185A78CE
:100E3000002A01D12000F8BD50008018033809189D
:100E400000204F784870210058702800FFF794FF69
:100E5000390006002800FFF7E1FF0400002EE9D06A
:100E6000002826D031002200A8686B6898472968BE
:100E700000280FD063001B197200033B9219CB1896
:100E8000033A9E7088188A5C002A00D05A70047059
:100E90003400CFE773009B196200033B1219CB1893
:100EA000033A9C7088188A5C002A00D05A70067039
:100EB000C0E73400BEE7C046F0B557464546DE46BB
:100EC0004E46E0B50D006B0001685B19DF1E0400A3
:100ED000C85D83B00192CA1900284CD043001B188A
:100EE000033BCB185E78B446002E16D1019E002E2F
:100EF0003ED0E67B002E04D073009B19CB18033B39
:100F00005D70E57300282FD10023537003B0F0BC4F
:100F1000BB46B246A946A046F0BD72006244033A01
:100F20008A185178884600215170894659703200DC
:100F300001002000FFF720FF43468246002B07D028
:100F40005B0021684344033BCB185A78002A16D132
:100F5000424651462000FFF70FFF2168019BCA1946
:100F6000002BC6D10028CFD043001B18033BCB1861
:100F700000219970C8E7019B002BBAD1C4E750004B
:100F800080180338091848788346484648705870D6
:100F900041462000FFF7F0FE594680462000FFF74B
:100FA0003DFF414602002000FFF7E6FE8046CFE706
:100FB000F0B557464546DE464E46E0B583B0019152
:100FC000457B04006B0000685B19DF1EC15DC21920
:100FD00000294ED04B005B18033BC3185E78B44623
:100FE000002E18D1019E002E40D0E67B002E04D0AA
:100FF00073009B19C318033B5D70E573002931D161
:10100000002328005370617303B0F0BCBB46B246A6
:10101000A946A046F0BD72006244033A8218507897
:101020008046002050708146587032002000FFF743
:10103000A3FE43468246002B07D05B002168434451
:10104000033BCB185A78002A17D14246514620005C
:10105000FFF792FE019B01002068C219002BC4D14A
:101060000029CDD04B005B18033BC31800209870BB
:10107000C6E7019B002BB8D1C2E7500080180338A7
:101080000918487883464846487058704146200001
:10109000FFF772FE594680462000FFF7BFFE41462B
:1010A00002002000FFF768FE8046CEE770B504001E
:1010B00000292CD0437B8B422ED005684800401875
:1010C000033828188278002A21D053009B18033B4C
:1010D000EA5CEE188A4202D11BE0002A08D05300D5
:1010E0009B18033BEB185A788A42F6D142785A7023
:1010F00000230122837043702000FFF7DDFE617B37
:1011000002002000FFF738FE6073012000E000209D
:1011100070BD43783370EBE701221900FFF7CCFE76
:1011200060730120F4E7C0462C4B2D4A70B51A605D
:101130002C4A2D4B2D491A6014008B689C43FBD11F
:101140002B4D2C4EB54208D2013E761BB60808CD79
:10115000984723000134B342F9D100F07DF8264AC4
:10116000214B1A60214A9368DB43DB01DD09002B28
:10117000F9D14022214B224C224E9A675A671A67B6
:10118000DA66B44208D223682000002B20D008344D
:10119000FFF7E4FDB442F6D31B4C1C4EC022B168ED
:1011A000200000F0F5FCB460FFF770F900F024FBBC
:1011B000FFF7ACFB164C174EB44208D2013E361B6B
:1011C000B60808CC98472B0001359E42F9D170BD76
:1011D0000834FFF7B5FDB442D5D3DDE700E00040A9
:1011E000BFCDFBFEFE7F3C0000F0004000C0004091
:1011F00098180020A8180020FFFFFF0100F0014010
:1012000090180020981800200000002000ED00E059
:10121000A8180020AC18002000BEFDE70FB400B5F0
:10122000084883B000F0EAFD049B002B07D005A915
:101230001800019100F06AFB034800F0DFFD00BEDA
:10124000FDE7C046FC1E00100C1F001010B5014841
:10125000FFF7E4FF101F001010B50C2082B000F063
:1012600031FBFFF70BF900280ED0854B854A1A6039
:101270005A609A60DA601A615A619A61DA611A6298
:10128000814A5A6202B010BD804CA06700F022FB78
:1012900001227F4B1A60636C012BFCD103227D4B32
:1012A0001A607A4A936B012BFCD1022401217A4AFD
:1012B0007A480533009400F0B1FA0523784A0121F9
:1012C0007848009400F0AAFA774B5A68FF2A02D8AF
:1012D000802252005A6080226E4B694C12011A60C3
:1012E0002169002905D0606900F062FB01300138F6
:1012F000FDD1E0226C4B6D4819680A400260022261
:101300001968514001320A40042102609A68114272
:10131000FCD08021664A09011160802252005A6087
:10132000644B2361644B5968FF2900D85A6003223B
:101330000121574B1A60604A93681942FCD0E023A0
:10134000106803405D480360126803234A4002218D
:101350001340594A036093681942FCD08021584BCE
:10136000090119608021574B490051606361564B58
:101370005A68FF2A00D859608022544B12011A6023
:10138000E169002905D0606900F012FB01300138E5
:10139000FDD1E0234C4A11680B404D490B60802180
:1013A0004C4B090119608021364B49005160E361C3
:1013B000494B5A68FF2A00D859608022474B1201D6
:1013C0001A60216A002905D0606900F0F1FA013045
:1013D0000138FDD1E023404A11680B4040490B60C1
:1013E0008021404B0901196080235B0053608022FB
:1013F000244BD20223623C4B5968914200D25A607E
:1014000080223A4B12011A60616A002905D0606996
:1014100000F0CEFA01300138FDD1E023324A1168E4
:101420000B4033490B608021324B09011960802346
:10143000DB025360144B63622F4B5A68FF2A02D8B9
:10144000802252005A6080222C4B12011A60A1693E
:10145000002905D0606900F0ABFA01300138FDD1F8
:10146000E023254A11680B4025490B608021254B5C
:101470000901196080235B005360124BA36101E7EF
:10148000C01B0020006CDC021BB700000080004085
:101490003CB0004030B00040002F6859008002404E
:1014A00000389C1C00C0024030800040309000405A
:1014B00030A00040001BB7003C8000403C90004042
:1014C0003CA00040405973075480004054B0004095
:1014D0005490004054A000406080004060B0004044
:1014E0006090004060A000406C8000406CB0004004
:1014F0006C9000406CA000404880004048B0004024
:101500004890004048A0004001238340002904D0B7
:10151000034A1360034A13607047034A1360FBE7F2
:1015200080E200E000E100E080E100E0024B1030EA
:101530009B688000C058704700ED00E070B50D005A
:10154000EFF3108672B60F4A1368002BFCD0BFF37E
:101550005F8F0D4B10309B6884001B590B4A9342E0
:1015600003D09D4201D0FFF771FE074B9B681D51D0
:10157000BFF35F8FBFF35F8F0022024B1A6086F3C9
:10158000108870BD240100D000ED00E0CD010010F6
:10159000F0B5DE4657464E464546E0B50C0083B0F2
:1015A000EFF3108A72B65A4A1368002BFCD0BFF3CF
:1015B0005F8F1022914681444A46564B96009B68A5
:1015C0009D59554B98469D4205D0A54216D0534F84
:1015D000EB1B2F2B14D94F4B9B689D51BFF35F8F93
:1015E000BFF35F8F00224A4B1A608AF3108803B062
:1015F000F0BCBB46B246A946A046F0BD1D00EAE7D6
:10160000012383409B465A46454B1B681A40009273
:101610005A46444B1A60BFF35F8FFEF724FE0190D9
:10162000002803D0814501D0FFF710FE01232A00D6
:101630009A4393689C4208D15FE04B005B189B0083
:10164000FB189968A14211D01A00062151560029B1
:10165000F3DA009B002B05D05A46334B1A60304B0F
:101660001A60B8E75A462F4B1A60B4E7062159565C
:10167000002921DB4A00501880003C188046A068F1
:101680009860E079D871062020569871002824DBF4
:10169000A488F81A6405241544440019E0240005C0
:1016A000400D240220439880204B52181878920055
:1016B000BA1890711970CCE70199002910D1FF3147
:1016C00091711B49918019490A789A71194ADB1B5B
:1016D0005B415A43120D0A70BBE7BD200002E2E7EE
:1016E000154A1649D21A083A5002400D0143998012
:1016F000134952080A43DA80ABE70621515613001A
:101700000029B7DA019A002AEAD14546DBE7C0464C
:10171000240100D000ED00E0CD01001024180020CD
:1017200000E100E080E100E080E200E0751C0020C4
:1017300000BDFFFFAAAA00005E18002000F0FFFF16
:1017400000F8FFFFF8B5012504000543FEF78BFD07
:10175000EFF3108C72B6214A1368002BFCD0BFF354
:101760005F8F1F4E2100B7681E4A1F4B891A4941DF
:101770004B431B0D59B28300F858A8421CD00623D6
:10178000D3568B421CD01223D3568B4222D01E2319
:10179000D3568B4220D02A23D35603208B4210D01D
:1017A000124B1A781970A271BFF35F8F00220B4B96
:1017B0001A608CF31088F8BDB2680D48D050EFE77E
:1017C000002043001B189B00D218FF239371094B84
:1017D0009380E5E70120F4E70220F2E7240100D03E
:1017E00000ED00E024180020AAAA0000751C0020CB
:1017F000CD01001000BDFFFF054B064A1360064AED
:10180000136053609360D3601361536193617047B9
:101810008080808000E400E004E400E0F8B504008B
:101820000C2017001D000E0000F0C2F843011B1A27
:101830009901C91AC90009188901380000F0B8F8DF
:10184000069B29041B0319432368002B20DB194B3B
:10185000194DE3185A4253418022520194461B030A
:10186000164A63441360164A13601F00AA68974320
:10187000FBD1C023221D9B01134321222660A060BF
:101880001A602268002AFCDA0822E1601A60F8BDBA
:101890003F2322681340B342D9D1A3681B051B0D17
:1018A0008342D4D1EE22E368D20213408B42CED1E0
:1018B000EDE7C0460040FDBF00C0004000E0004032
:1018C00000F000408023024A9B000343D36270472C
:1018D00000800540AA23064A1B0113602F230549F7
:1018E000D360054B19605368002BFCDA7047C04683
:1018F0000040024000B0FA000060024010B500282D
:1019000000D110BD00F02AFAFBE7C04610B5094A25
:101910000300146884B0002C08D00122009106480E
:10192000524203A9A047012004B010BD00F066FA9E
:101930000020F9E7301C0020FD18001001480421A8
:10194000014B1847701800206D190010142310B5B2
:101950000100188804331B88984710BD162310B562
:101960000100188802331B88984710BDF8B5474618
:10197000CE4680B50F1E19D01423994604330400B7
:101980000025012698464B461888434621681B8847
:10199000984701C4431E9841013540420640AF427A
:1019A000F1D13000C0BCB946B046F8BD0126F8E719
:1019B000114A936F9B0813D210665166002905D017
:1019C000FFE7FFE7FFE7516F106F704704B500288E
:1019D00001D00020C04300F067FA002104BDC046DA
:1019E000F0B5146E556E576F166FFFF7E5FF14666E
:1019F000556657671667F0BD000000D0132370B519
:101A00001D78012D15D010DD1C48FFF7A7FF1C4CD9
:101A100001008022200000F0BBF8022D06D01948FA
:101A2000FFF794FF184B186070BD154C174BA3645B
:101A3000F5E7164B124C23606360A360E3602361FB
:101A40006361A361E36123626362A362E362236370
:101A50006363A363E36323646364A364E364236550
:101A60006365A365E36523666366A366E366236730
:101A70006367A367E367A364D1E7C04653440000EC
:101A8000B01900204C3300005C1C0020911A00109B
:101A900007B5604601880A0A0230DF2AFAD1C9B2C6
:101AA000820804D3028840880004104300E00068E4
:101AB000014A5050039007BDB019002051434343E1
:101AC000C9188C46110C83B24B4310B4040C61430B
:101AD00092B280B2504362431C041B0C001910BC2C
:101AE00059411304120CC018514161447047000061
:101AF000132310B512481C78FFF730FF0100012CAA
:101B00000AD003DD80220F4800F042F80E48FFF7AC
:101B10001DFF0E4B186010BD0A4C5422200000F02F
:101B200037F80B4B6365A365E36523666366A366BD
:101B3000E36623676367A367E3672362E361E5E71F
:101B400053460000B01A00204C3300005C1C0020FB
:101B5000551B001007B5604601880A0A0230DF2ACB
:101B6000FAD1C9B2820804D3028840880004104325
:101B700000E00068014A5050039007BDB01A0020F1
:101B800001480421014B1847801800206D190010EE
:101B9000014B5B681847000080180020030010B557
:101BA000080011001B68984710BDC046F0B54646B6
:101BB0004F46D646C0B5437C80460E001700002B2A
:101BC00046D0002A3FDD4B1E9946244B01250024B8
:101BD00000209A460DE04B461B5D0D3B5A42534197
:101BE000325DDBB20A2A0BD02B00013401359F4253
:101BF0001ADD002CEFD14346325D1B7C0A2AF3D15B
:101C0000002BF1D1A04204DA4346211A1B68301898
:101C10009847434650461B680221984701342800E4
:101C20002B0001359F42E4DC874204DD4346391A2C
:101C30001B6830189847F619013E33780D3B5A421D
:101C4000534142461374E0BCBA46B146A846F0BDC3
:101C50000368110030009847F5E7C0467C1F00106C
:101C6000F0B557464E464546DE461C00D023E0B54B
:101C70001B061F68344B83B006000D00180001A935
:101C800091469A4600F018F98046002808D1019B39
:101C90007FB29F4204D0504600F016F901239846C7
:101CA0006B1C03D1300000F0C7F80500002C27D1D1
:101CB000264F274B1C68002C18D04B46002B21D1F7
:101CC000244B994602E0E468002C0FD02368002BD7
:101CD000F9D04B461B68002B01D0A342F3D1200062
:101CE0002A003100B847E468002CEFD14346002BAE
:101CF00025D103B0F0BCBB46B246A946A046F0BD14
:101D0000154FD6E7134B99460A239B4602E0E46839
:101D1000002CEBD02368002BF9D04B461B68002B1E
:101D200001D0A342F3D12A0031002000B8475A461F
:101D30006B4620001A7101A90122B847E7E7504617
:101D400000F0AAF8D5E7C04690180020AD1B00109F
:101D5000281C00202C1C00209D1B0010F0B5CE4636
:101D6000474680B583B06B46DE1CD02330701B061F
:101D70001C681F4B804601A91800994600F09CF88A
:101D8000071E20D01B4B1C68002C28D01A4D02E0E7
:101D9000E468002C0FD02368002BF9D02B68002BAF
:101DA00001D0A342F4D1200001223100FFF7FEFE52
:101DB000E468002CEFD1002F11D1404603B0C0BC25
:101DC000B946B046F0BD019B64B29C420BD0484678
:101DD00000F07AF8074B01271C68002CD6D1484642
:101DE00000F05AF8E9E7034B1C68002CCED1E4E779
:101DF00090180020281C00202C1C002070B5040026
:101E000000F01AF800230100050001222000FFF76E
:101E100027FF084B1C68002C06D06368002B05D0F8
:101E20009847E468002CF8D1280070BDE468002CC5
:101E3000F3D1F9E7281C002010B583070AD003006E
:101E4000032102E001330B4205D01A78002AF9D1B0
:101E5000181A10BD030019680C4A0D4C8A188A43E1
:101E600022420FD15968094A04338A188A43224210
:101E700008D15968054A04338A188A432242F1D0AE
:101E800000E001331A78002AFBD1E1E7FFFEFEFEF5
:101E900080808080F8B5C04601B40248844601BC09
:101EA000604700BF4D01002001B40248844601BCD8
:101EB000604700BF7501002001B40248844601BCA0
:101EC000604700BF0901002001B40248844601BCFC
:081ED000604700BFC1000020C3
:101ED800486172647761726520616C61726D20255A
:101EE8006420616C726561647920636C61696D65F9
:101EF800640000000A2A2A2A2050414E4943202A19
:101F08002A2A0A000A00000048617264206173737B
:101F18006572740052656C6561736500626F6F74F9
:101F2800325F77323571303830000000312E332E71
:101F3800310000007069636F0000000053696E474C
:101F4800656E00004A756E20313220323032320020
:101F580006005250BBFF3CB63C1F00100600525012
:101F6800E182887F241F001006005250D3F075428A
:081F78001C1F00100D0A0000FF
:101F8000B4020010A80200109C020010581F00109C
:0C1F900090020010641F0010701F001071
:101F9C00D02330B500251B0600245D5706E00368EE
:101FAC00BFF35F8F1C6081F3108820BF0268EFF3D2
:101FBC00108172B61368002BFCD0BFF35F8F0379CE
:101FCC007F2BECD905710368BFF35F8F00221A6079
:101FDC0081F3108830BDC04603000068EFF3108C0D
:101FEC0072B60268002AFCD0BFF35F8F04229A56A7
:101FFC00002A0BDB00290FD000200A601B68BFF3FE
:10200C005F8F00221A608CF310887047D022120662
:10201C00126801201A71F1E70020EFE70268EFF374
:10202C00108172B61368002BFCD0BFF35F8FFF23B7
:10203C0003710368BFF35F8F00221A6081F310886D
:10204C0040BF70477047C046102700003C27000077
:10205C006727000093270000BF270000EA27000035
:10206C0016280000412800006D2800009928000067
:10207C00C4280000F02800001B290000472900009C
:10208C00722900009E290000CA290000F5290000D1
:10209C00212A00004C2A0000782A0000A32A000004
:1020AC00CE2A0000FA2A0000252B0000512B00003C
:1020BC007C2B0000A72B0000D32B0000FE2B000074
:1020CC00292C0000552C0000802C0000AB2C0000AB
:1020DC00D62C0000012D00002C2D0000572D0000E7
:1020EC00822D0000AD2D0000D82D0000032E000025
:1020FC002E2E0000592E0000842E0000AF2E000062
:10210C00DA2E0000042F00002F2F00005A2F0000A1
:10211C00842F0000AF2F0000DA2F000004300000E5
:10212C002E3000005930000083300000AE3000002B
:10213C00D8300000023100002C3100005631000074
:10214C0080310000AA310000D4310000FE310000C3
:10215C0028320000523200007C320000A532000010
:10216C00CF320000F9320000223300004C33000063
:10217C00753300009E330000C8330000F1330000BB
:10218C001A340000433400006C3400009534000015
:10219C00BE340000E7340000103500003835000074
:1021AC00613500008A350000B2350000DA350000D8
:1021BC00033600002B360000533600007B3600003F
:1021CC00A3360000CB360000F33600001B370000AE
:1021DC00433700006B37000092370000BA3700001D
:1021EC00E137000008380000303800005738000094
:1021FC007E380000A5380000CC380000F338000011
:10220C001939000040390000673900008D39000091
:10221C00B4390000DA390000003A0000263A000018
:10222C004C3A0000723A0000983A0000BE3A0000A6
:10223C00E33A0000093B00002E3B0000543B000039
:10224C00793B00009E3B0000C33B0000E83B0000D4
:10225C000D3C0000323C0000563C00007B3C000072
:10226C009F3C0000C43C0000E83C00000C3D00001A
:10227C00303D0000543D0000783D00009B3D0000C7
:10228C00BF3D0000E23D0000063E0000293E00007C
:10229C004C3E00006F3E0000923E0000B53E000038
:1022AC00D83E0000FA3E00001D3F00003F3F0000FA
:1022BC00613F0000833F0000A53F0000C73F0000C6
:1022CC00E93F00000A4000002C4000004D40000097
:1022DC006E40000090400000B1400000D140000072
:1022EC00F240000013410000334100005441000053
:1022FC007441000094410000B4410000D44100003E
:10230C00F44100001342000033420000524200002E
:10231C007142000090420000AF420000CE4200002B
:10232C00ED4200000B43000029430000484300002D
:10233C006643000084430000A2430000BF4300003A
:10234C00DD430000FA430000174400003544000050
:10235C00524400006E4400008B440000A84400006E
:10236C00C4440000E0440000FC4400001845000098
:10237C0034450000504500006B45000087450000C7
:10238C00A2450000BD450000D8450000F345000003
:10239C000E46000028460000424600005D46000044
:1023AC007746000090460000AA460000C446000094
:1023BC00DD460000F64600001047000028470000EC
:1023CC00414700005A470000724700008B4700004D
:1023DC00A3470000BB470000D3470000EA470000BA
:1023EC00024800001948000030480000484800002E
:1023FC005E480000754800008C480000A2480000B0
:10240C00B8480000CE480000E4480000FA4800003C
:10241C0010490000254900003A4900004F490000CE
:10242C0064490000794900008D490000A249000070
:10243C00B6490000CA490000DE490000F24900001C
:10244C00054A0000194A00002C4A00003F4A0000CF
:10245C00524A0000654A0000774A0000894A000091
:10246C009C4A0000AE4A0000BF4A0000D14A00005E
:10247C00E34A0000F44A0000054B0000164B000034
:10248C00274B0000374B0000484B0000584B000016
:10249C00684B0000784B0000884B0000974B000005
:1024AC00A74B0000B64B0000C54B0000D44B0000FE
:1024BC00E24B0000F14B0000FF4B00000D4C000004
:1024CC001B4C0000294C0000374C0000444C000011
:1024DC00514C00005E4C00006B4C0000784C00002E
:1024EC00844C0000904C00009D4C0000A94C000056
:1024FC00B44C0000C04C0000CB4C0000D64C00008B
:10250C00E14C0000EC4C0000F74C0000014D0000C9
:10251C000C4D0000164D0000204D0000294D000010
:10252C00334D00003C4D0000454D00004E4D000069
:10253C00574D0000604D0000684D0000714D0000CB
:10254C00794D0000804D0000884D0000904D00003A
:10255C00974D00009E4D0000A54D0000AC4D0000B5
:10256C00B24D0000B94D0000BF4D0000C54D00003C
:10257C00CA4D0000D04D0000D54D0000DB4D0000D1
:10258C00E04D0000E54D0000E94D0000EE4D00006F
:10259C00F24D0000F64D0000FA4D0000FE4D00001B
:1025AC00014E0000054E0000084E00000B4E0000CE
:1025BC000D4E0000104E0000124E0000144E000094
:1025CC00164E0000184E00001A4E00001B4E000064
:1025DC001D4E00001E4E00001E4E00001F4E00003F
:1025EC00204E0000204E0000204E0000204E000027
:1025FC00204E00001F4E00001E4E00001E4E00001C
:10260C001D4E00001B4E00001A4E0000184E00001C
:10261C00164E0000144E0000124E0000104E00002A
:10262C000D4E00000B4E0000084E0000054E000041
:10263C00014E0000FE4D0000FA4D0000F64D00006A
:10264C00F24D0000EE4D0000E94D0000E54D00009C
:10265C00E04D0000DB4D0000D54D0000D04D0000DA
:10266C00CA4D0000C54D0000BF4D0000B94D000023
:10267C00B24D0000AC4D0000A54D00009E4D000079
:10268C00974D0000904D0000884D0000804D0000DB
:10269C00794D0000714D0000684D0000604D000048
:1026AC00574D00004E4D0000454D00003C4D0000C4
:1026BC00334D0000294D0000204D0000164D000048
:1026CC000C4D0000014D0000F74C0000EC4C0000DC
:1026DC00E14C0000D64C0000CB4C0000C04C00007C
:1026EC00B44C0000A94C00009D4C0000904C000024
:1026FC00844C0000784C00006B4C00005E4C0000D9
:10270C00514C0000444C0000374C0000294C000098
:10271C001B4C00000D4C0000FF4B0000F14B000067
:10272C00E24B0000D44B0000C54B0000B64B000040
:10273C00A74B0000974B0000884B0000784B000023
:10274C00684B0000584B0000484B0000374B000012
:10275C00274B0000164B0000054B0000F44A00000C
:10276C00E34A0000D14A0000BF4A0000AE4A000014
:10277C009C4A0000894A0000774A0000654A000024
:10278C00524A00003F4A00002C4A0000194A00003F
:10279C00054A0000F2490000DE490000CA49000069
:1027AC00B6490000A24900008D490000794900009B
:1027BC00644900004F4900003A49000025490000D7
:1027CC0010490000FA480000E4480000CE48000020
:1027DC00B8480000A24800008C4800007548000072
:1027EC005E480000484800003048000019480000CE
:1027FC0002480000EA470000D3470000BB47000036
:10280C00A34700008B470000724700005A470000A6
:10281C00414700002847000010470000F646000022
:10282C00DD460000C4460000AA46000090460000A9
:10283C00774600005D460000424600002846000036
:10284C000E460000F3450000D8450000BD450000D1
:10285C00A2450000874500006B4500005045000074
:10286C003445000018450000FC440000E044000022
:10287C00C4440000A84400008B4400006E440000D7
:10288C00524400003544000017440000FA43000095
:10289C00DD430000BF430000A2430000844300005E
:1028AC006643000048430000294300000B4300002E
:1028BC00ED420000CE420000AF420000904200000A
:1028CC0071420000524200003342000013420000EB
:1028DC00F4410000D4410000B441000094410000D8
:1028EC0074410000544100003341000013410000CA
:1028FC00F2400000D1400000B140000090400000C8
:10290C006E4000004D4000002C4000000A400000CA
:10291C00E93F0000C73F0000A53F0000833F0000D7
:10292C00613F00003F3F00001D3F0000FA3E0000E9
:10293C00D83E0000B53E0000923E00006F3E000005
:10294C004C3E0000293E0000063E0000E23D000027
:10295C00BF3D00009B3D0000783D0000543D000051
:10296C00303D00000C3D0000E83C0000C43C000081
:10297C009F3C00007B3C0000563C0000323C0000B9
:10298C000D3C0000E83B0000C33B00009E3B0000F8
:10299C00793B0000543B00002E3B0000093B00003B
:1029AC00E33A0000BE3A0000983A0000723A000088
:1029BC004C3A0000263A0000003A0000DA390000D8
:1029CC00B43900008D39000067390000403900002F
:1029DC0019390000F3380000CC380000A53800008D
:1029EC007E380000573800003038000008380000EE
:1029FC00E1370000BA370000923700006B37000057
:102A0C00433700001B370000F3360000CB360000C4
:102A1C00A33600007B360000533600002B36000036
:102A2C0003360000DA350000B23500008A350000AC
:102A3C00613500003835000010350000E734000027
:102A4C00BE340000953400006C34000043340000A8
:102A5C001A340000F1330000C83300009E3300002C
:102A6C00753300004C33000022330000F9320000B3
:102A7C00CF320000A53200007C3200005232000040
:102A8C0028320000FE310000D4310000AA310000D1
:102A9C0080310000563100002C3100000231000062
:102AAC00D8300000AE3000008330000059300000F8
:102ABC002E30000004300000DA2F0000AF2F000091
:102ACC00842F00005A2F00002F2F0000042F00002D
:102ADC00DA2E0000AF2E0000842E0000592E0000CC
:102AEC002E2E0000032E0000D82D0000AD2D00006E
:102AFC00822D0000572D00002C2D0000012D000010
:102B0C00D62C0000AB2C0000802C0000552C0000B3
:102B1C00292C0000FE2B0000D32B0000A72B00005B
:102B2C007C2B0000512B0000252B0000FA2A000002
:102B3C00CE2A0000A32A0000782A00004C2A0000AC
:102B4C00212A0000F5290000CA2900009E29000056
:102B5C0072290000472900001B290000F028000002
:102B6C00C4280000992800006D28000041280000AE
:102B7C0016280000EA270000BF270000932700005A
:102B8C00672700003C27000010270000E426000007
:102B9C00B92600008D2600006126000036260000B4
:102BAC000A260000DF250000B32500008725000061
:102BBC005C2500003025000005250000D92400000C
:102BCC00AE24000082240000562400002B240000B8
:102BDC00FF230000D4230000A82300007D23000065
:102BEC005223000026230000FB220000CF2200000D
:102BFC00A4220000792200004D22000022220000B5
:102C0C00F7210000CB210000A0210000752100005D
:102C1C004A2100001F210000F4200000C920000000
:102C2C009E20000073200000482000001D200000A2
:102C3C00F21F0000C71F00009C1F0000711F000046
:102C4C00461F00001C1F0000F11E0000C61E0000E5
:102C5C009C1E0000711E0000461E00001C1E000081
:102C6C00F21D0000C71D00009D1D0000721D00001C
:102C7C00481D00001E1D0000F41C0000CA1C0000B2
:102C8C00A01C0000761C00004C1C0000221C000044
:102C9C00F81B0000CE1B0000A41B00007B1B0000D7
:102CAC00511B0000271B0000FE1A0000D41A000064
:102CBC00AB1A0000821A0000581A00002F1A0000EC
:102CCC00061A0000DD190000B41900008B19000071
:102CDC00621900003919000010190000E8180000F2
:102CEC00BF180000961800006E180000461800006F
:102CFC001D180000F5170000CD170000A5170000E7
:102D0C007D170000551700002D1700000517000057
:102D1C00DD160000B51600008E16000066160000C9
:102D2C003F16000018160000F0150000C915000031
:102D3C00A21500007B150000541500002D15000095
:102D4C0007150000E0140000B914000093140000F3
:102D5C006C1400004614000020140000FA1300004C
:102D6C00D4130000AE13000088130000621300009F
:102D7C003D13000017130000F2120000CC120000EB
:102D8C00A7120000821200005D1200003812000031
:102D9C0013120000EE110000CA110000A511000072
:102DAC00811100005C1100003811000014110000AA
:102DBC00F0100000CC100000A810000085100000DE
:102DCC00611000003E1000001A100000F70F000008
:102DDC00D40F0000B10F00008E0F00006B0F00002D
:102DEC00480F0000260F0000030F0000E10E00004A
:102DFC00BF0E00009D0E00007B0E0000590E00005F
:102E0C00370E0000160E0000F40D0000D30D00006C
:102E1C00B20D0000900D00006F0D00004F0D000072
:102E2C002E0D00000D0D0000ED0C0000CC0C000070
:102E3C00AC0C00008C0C00006C0C00004C0C000066
:102E4C002C0C00000D0C0000ED0B0000CE0B000054
:102E5C00AF0B0000900B0000710B0000520B000038
:102E6C00330B0000150B0000F70A0000D80A000015
:102E7C00BA0A00009C0A00007E0A0000610A0000E9
:102E8C00430A0000260A0000090A0000EB090000B2
:102E9C00CE090000B2090000950900007809000075
:102EAC005C0900004009000024090000080900002A
:102EBC00EC080000D0080000B508000099080000DC
:102ECC007E08000063080000480800002D08000080
:102EDC0012080000F8070000DE070000C30700001E
:102EEC00A907000090070000760700005C070000AF
:102EFC00430700002A07000010070000F806000036
:102F0C00DF060000C6060000AE06000095060000B5
:102F1C007D060000650600004D0600003606000028
:102F2C001E06000007060000F0050000D805000092
:102F3C00C2050000AB050000940500007E050000F2
:102F4C0068050000520500003C0500002605000045
:102F5C0010050000FB040000E6040000D104000092
:102F6C00BC040000A7040000930400007E040000D1
:102F7C006A04000056040000420400002E04000005
:102F8C001B04000007040000F4030000E103000030
:102F9C00CE030000BB030000A90300009703000050
:102FAC008403000072030000610300004F03000063
:102FBC003D0300002C0300001B0300000A0300006B
:102FCC00F9020000E9020000D8020000C80200006B
:102FDC00B8020000A802000098020000890200005C
:102FEC00790200006A0200005B0200004C02000043
:102FFC003E0200002F02000021020000130200001C
:10300C0005020000F7010000E9010000DC010000EE
:10301C00CF010000C2010000B5010000A8010000B2
:10302C009C0100009001000083010000770100006A
:10303C006C01000060010000550100004A01000015
:10304C003F01000034010000290100001F010000B5
:10305C00140100000A01000000010000F70000004C
:10306C00ED000000E4000000DB000000D2000000D6
:10307C00C9000000C0000000B8000000AF00000054
:10308C00A7000000A00000009800000090000000C5
:10309C0089000000820000007B000000740000002A
:1030AC006E00000067000000610000005B00000083
:1030BC0056000000500000004B00000045000000CE
:1030CC00400000003B000000370000003200000010
:1030DC002E0000002A000000260000002200000044
:1030EC001F0000001B00000018000000150000006D
:1030FC0013000000100000000E0000000C00000087
:10310C000A00000008000000060000000500000096
:10311C00030000000200000002000000010000009B
:10312C000000000000000000000000000000000093
:10313C00000000000100000002000000020000007E
:10314C00030000000500000006000000080000005D
:10315C000A0000000C0000000E000000100000002F
:10316C001300000015000000180000001B000000F8
:10317C001F00000022000000260000002A000000B2
:10318C002E00000032000000370000003B00000061
:10319C0040000000450000004B0000005000000003
:1031AC00560000005B00000061000000670000009A
:1031BC006E000000740000007B0000008200000024
:1031CC00890000009000000098000000A0000000A2
:1031DC00A7000000AF000000B8000000C000000015
:1031EC00C9000000D2000000DB000000E400000079
:1031FC00ED000000F7000000000100000A010000D3
:10320C00140100001F01000029010000340100001E
:10321C003F0100004A010000550100006001000060
:10322C006C01000077010000830100009001000098
:10323C009C010000A8010000B5010000C2010000C3
:10324C00CF010000DC010000E9010000F7010000E3
:10325C000502000013020000210200002F020000F2
:10326C003E0200004C0200005B0200006A020000FB
:10327C00790200008902000098020000A8020000F8
:10328C00B8020000C8020000D8020000E9020000E9
:10329C00F90200000A0300001B0300002C030000CD
:1032AC003D0300004F0300006103000072030000A7
:1032BC008403000097030000A9030000BB03000077
:1032CC00CE030000E1030000F4030000070400003B
:1032DC001B0400002E0400004204000056040000F1
:1032EC006A0400007E04000093040000A7040000A0
:1032FC00BC040000D1040000E6040000FB04000044
:10330C0010050000260500003C05000052050000D9
:10331C00680500007E05000094050000AB05000068
:10332C00C2050000D8050000F005000007060000EB
:10333C001E060000360600004D0600006506000063
:10334C007D06000095060000AE060000C6060000D3
:10335C00DF060000F8060000100700002A07000036
:10336C00430700005C070000760700009007000090
:10337C00A9070000C3070000DE070000F8070000E3
:10338C00120800002D080000480800006308000027
:10339C007E08000099080000B5080000D008000065
:1033AC00EC08000008090000240900004009000096
:1033BC005C0900007809000095090000B2090000C2
:1033CC00CE090000EB090000090A0000260A0000E3
:1033DC00430A0000610A00007E0A00009C0A0000FB
:1033EC00BA0A0000D80A0000F70A0000150B00000A
:1033FC00330B0000520B0000710B0000900B00000F
:10340C00AF0B0000CE0B0000ED0B00000D0C00000C
:10341C002C0C00004C0C00006C0C00008C0C000000
:10342C00AC0C0000CC0C0000ED0C00000D0D0000ED
:10343C002E0D00004F0D00006F0D0000900D0000D0
:10344C00B20D0000D30D0000F40D0000160E0000AC
:10345C00370E0000590E00007B0E00009D0E000080
:10346C00BF0E0000E10E0000030F0000260F00004D
:10347C00480F00006B0F00008E0F0000B10F000012
:10348C00D40F0000F70F00001A1000003E100000CF
:10349C006110000085100000A8100000CC10000086
:1034AC00F010000014110000381100005C11000035
:1034BC0081110000A5110000CA110000EE110000DE
:1034CC0013120000381200005D120000821200007E
:1034DC00A7120000CC120000F2120000171300001B
:1034EC003D1300006213000088130000AE130000AF
:1034FC00D4130000FA13000020140000461400003E
:10350C006C14000093140000B9140000E0140000C7
:10351C00071500002D150000541500007B15000048
:10352C00A2150000C9150000F015000018160000C7
:10353C003F160000661600008E160000B51600003F
:10354C00DD160000051700002D17000055170000B0
:10355C007D170000A5170000CD170000F51700001F
:10356C001D180000461800006E1800009618000088
:10357C00BF180000E81800001019000039190000ED
:10358C00621900008B190000B4190000DD1900004D
:10359C00061A00002F1A0000581A0000821A0000A8
:1035AC00AB1A0000D41A0000FE1A0000271B000002
:1035BC00511B00007B1B0000A41B0000CE1B000055
:1035CC00F81B0000221C00004C1C0000761C0000A4
:1035DC00A01C0000CA1C0000F41C00001E1D0000F2
:1035EC00481D0000721D00009D1D0000C71D00003D
:1035FC00F21D00001C1E0000461E0000711E000083
:10360C009C1E0000C61E0000F11E00001C1F0000C6
:10361C00461F0000711F00009C1F0000C71F000008
:10362C00F21F00001D200000482000007320000045
:10363C009E200000C9200000F42000001F21000083
:10364C004A21000075210000A0210000CB210000C0
:10365C00F7210000222200004D22000079220000F8
:10366C00A4220000CF220000FB2200002623000031
:10367C00522300007D230000A8230000D423000067
:10368C00FF2300002B24000056240000822400009D
:10369C00AE240000D92400000525000030250000D0
:1036AC005C25000087250000B3250000DF25000005
:1036BC000A26000036260000612600008D26000038
:1036CC00B9260000E42600001000000014180020A9
:1036DC0000000000B0180020E81B002000000000D3
:1036EC0000000000F81B002000000000000000009B
:1036FC0010000000000000000000010000000000AD
:10370C0000000000000002000000000000000000AB
:10371C000000030000000000000000000000FF009B
:10372C000000000000B5486801318E460047704625
:10373C0009380149884700BD4517001000000000FA
:10374C00503300004C33000054330000523300005F
:10375C004D5300004D43000053340000433400002F
:10376C000000000000000000811B00103D1900103B
:0C377C00FD190010F11A0010ED02001001
:04000005100001E9FD
:00000001FF
